{
  "contractName": "Coordinator",
  "abi": [
    {
      "constant": true,
      "inputs": [
        {
          "name": "",
          "type": "bytes32"
        }
      ],
      "name": "serviceAgreements",
      "outputs": [
        {
          "name": "payment",
          "type": "uint256"
        },
        {
          "name": "expiration",
          "type": "uint256"
        },
        {
          "name": "endAt",
          "type": "uint256"
        },
        {
          "name": "requestDigest",
          "type": "bytes32"
        }
      ],
      "payable": false,
      "stateMutability": "view",
      "type": "function"
    },
    {
      "inputs": [
        {
          "name": "_link",
          "type": "address"
        }
      ],
      "payable": false,
      "stateMutability": "nonpayable",
      "type": "constructor"
    },
    {
      "anonymous": false,
      "inputs": [
        {
          "indexed": true,
          "name": "sAId",
          "type": "bytes32"
        },
        {
          "indexed": true,
          "name": "requester",
          "type": "address"
        },
        {
          "indexed": true,
          "name": "amount",
          "type": "uint256"
        },
        {
          "indexed": false,
          "name": "requestId",
          "type": "uint256"
        },
        {
          "indexed": false,
          "name": "version",
          "type": "uint256"
        },
        {
          "indexed": false,
          "name": "data",
          "type": "bytes"
        }
      ],
      "name": "RunRequest",
      "type": "event"
    },
    {
      "anonymous": false,
      "inputs": [
        {
          "indexed": true,
          "name": "said",
          "type": "bytes32"
        },
        {
          "indexed": true,
          "name": "requestDigest",
          "type": "bytes32"
        }
      ],
      "name": "NewServiceAgreement",
      "type": "event"
    },
    {
      "anonymous": false,
      "inputs": [
        {
          "indexed": false,
          "name": "internalId",
          "type": "bytes32"
        }
      ],
      "name": "CancelRequest",
      "type": "event"
    },
    {
      "constant": false,
      "inputs": [
        {
          "name": "_sender",
          "type": "address"
        },
        {
          "name": "_amount",
          "type": "uint256"
        },
        {
          "name": "_data",
          "type": "bytes"
        }
      ],
      "name": "onTokenTransfer",
      "outputs": [],
      "payable": false,
      "stateMutability": "nonpayable",
      "type": "function"
    },
    {
      "constant": false,
      "inputs": [
        {
          "name": "_sender",
          "type": "address"
        },
        {
          "name": "_amount",
          "type": "uint256"
        },
        {
          "name": "_version",
          "type": "uint256"
        },
        {
          "name": "_sAId",
          "type": "bytes32"
        },
        {
          "name": "_callbackAddress",
          "type": "address"
        },
        {
          "name": "_callbackFunctionId",
          "type": "bytes4"
        },
        {
          "name": "_nonce",
          "type": "uint256"
        },
        {
          "name": "_data",
          "type": "bytes"
        }
      ],
      "name": "requestData",
      "outputs": [],
      "payable": false,
      "stateMutability": "nonpayable",
      "type": "function"
    },
    {
      "constant": true,
      "inputs": [
        {
          "name": "_payment",
          "type": "uint256"
        },
        {
          "name": "_expiration",
          "type": "uint256"
        },
        {
          "name": "_endAt",
          "type": "uint256"
        },
        {
          "name": "_oracles",
          "type": "address[]"
        },
        {
          "name": "_requestDigest",
          "type": "bytes32"
        }
      ],
      "name": "getPackedArguments",
      "outputs": [
        {
          "name": "",
          "type": "bytes"
        }
      ],
      "payable": false,
      "stateMutability": "pure",
      "type": "function"
    },
    {
      "constant": true,
      "inputs": [
        {
          "name": "_payment",
          "type": "uint256"
        },
        {
          "name": "_expiration",
          "type": "uint256"
        },
        {
          "name": "_endAt",
          "type": "uint256"
        },
        {
          "name": "_oracles",
          "type": "address[]"
        },
        {
          "name": "_requestDigest",
          "type": "bytes32"
        }
      ],
      "name": "getId",
      "outputs": [
        {
          "name": "",
          "type": "bytes32"
        }
      ],
      "payable": false,
      "stateMutability": "pure",
      "type": "function"
    },
    {
      "constant": false,
      "inputs": [
        {
          "name": "_payment",
          "type": "uint256"
        },
        {
          "name": "_expiration",
          "type": "uint256"
        },
        {
          "name": "_endAt",
          "type": "uint256"
        },
        {
          "name": "_oracles",
          "type": "address[]"
        },
        {
          "name": "_vs",
          "type": "uint8[]"
        },
        {
          "name": "_rs",
          "type": "bytes32[]"
        },
        {
          "name": "_ss",
          "type": "bytes32[]"
        },
        {
          "name": "_requestDigest",
          "type": "bytes32"
        }
      ],
      "name": "initiateServiceAgreement",
      "outputs": [
        {
          "name": "serviceAgreementID",
          "type": "bytes32"
        }
      ],
      "payable": false,
      "stateMutability": "nonpayable",
      "type": "function"
    },
    {
      "constant": false,
      "inputs": [
        {
          "name": "_requestId",
          "type": "uint256"
        },
        {
          "name": "_data",
          "type": "bytes32"
        }
      ],
      "name": "fulfillData",
      "outputs": [
        {
          "name": "",
          "type": "bool"
        }
      ],
      "payable": false,
      "stateMutability": "nonpayable",
      "type": "function"
    },
    {
      "constant": false,
      "inputs": [
        {
          "name": "",
          "type": "bytes32"
        }
      ],
      "name": "cancel",
      "outputs": [],
      "payable": false,
      "stateMutability": "nonpayable",
      "type": "function"
    }
  ],
  "bytecode": "0x608060405234801561001057600080fd5b5060405160208061155f8339810180604052602081101561003057600080fd5b505160008054600160a060020a03909216600160a060020a03199092169190911790556114fd806100626000396000f3fe6080604052600436106100745763ffffffff60e060020a60003504166375d35070811461007957806376005c26146100c957806386b623311461010d5780639f1d097114610247578063a4c0ed361461031e578063b612691c146103e8578063c3d2026f1461056f578063c4d252f51461062f575b600080fd5b34801561008557600080fd5b506100a36004803603602081101561009c57600080fd5b5035610659565b604080519485526020850193909352838301919091526060830152519081900360800190f35b3480156100d557600080fd5b506100f9600480360360408110156100ec57600080fd5b5080359060200135610682565b604080519115158252519081900360200190f35b34801561011957600080fd5b506101d2600480360360a081101561013057600080fd5b8135916020810135916040820135919081019060808101606082013564010000000081111561015e57600080fd5b82018360208201111561017057600080fd5b8035906020019184602083028401116401000000008311171561019257600080fd5b9190808060200260200160405190810160405280939291908181526020018383602002808284376000920191909152509295505091359250610873915050565b6040805160208082528351818301528351919283929083019185019080838360005b8381101561020c5781810151838201526020016101f4565b50505050905090810190601f1680156102395780820380516001836020036101000a031916815260200191505b509250505060405180910390f35b34801561025357600080fd5b5061030c600480360360a081101561026a57600080fd5b8135916020810135916040820135919081019060808101606082013564010000000081111561029857600080fd5b8201836020820111156102aa57600080fd5b803590602001918460208302840111640100000000831117156102cc57600080fd5b91908080602002602001604051908101604052809392919081815260200183836020028082843760009201919091525092955050913592506108e7915050565b60408051918252519081900360200190f35b34801561032a57600080fd5b506103e66004803603606081101561034157600080fd5b600160a060020a038235169160208101359181019060608101604082013564010000000081111561037157600080fd5b82018360208201111561038357600080fd5b803590602001918460018302840111640100000000831117156103a557600080fd5b91908080601f016020809104026020016040519081016040528093929190818152602001838380828437600092019190915250929550610908945050505050565b005b3480156103f457600080fd5b5061030c600480360361010081101561040c57600080fd5b8135916020810135916040820135919081019060808101606082013564010000000081111561043a57600080fd5b82018360208201111561044c57600080fd5b8035906020019184602083028401116401000000008311171561046e57600080fd5b91939092909160208101903564010000000081111561048c57600080fd5b82018360208201111561049e57600080fd5b803590602001918460208302840111640100000000831117156104c057600080fd5b9193909290916020810190356401000000008111156104de57600080fd5b8201836020820111156104f057600080fd5b8035906020019184602083028401116401000000008311171561051257600080fd5b91939092909160208101903564010000000081111561053057600080fd5b82018360208201111561054257600080fd5b8035906020019184602083028401116401000000008311171561056457600080fd5b919350915035610b09565b34801561057b57600080fd5b506103e6600480360361010081101561059357600080fd5b600160a060020a038235811692602081013592604082013592606083013592608081013590911691600160e060020a031960a0830135169160c081013591810190610100810160e08201356401000000008111156105f057600080fd5b82018360208201111561060257600080fd5b8035906020019184600183028401116401000000008311171561062457600080fd5b509092509050610e14565b34801561063b57600080fd5b506103e66004803603602081101561065257600080fd5b50356111a0565b600260208190526000918252604090912080546001820154928201546004909201549092919084565b6000828152600160208190526040822001548390600160a060020a031615156106f5576040805160e560020a62461bcd02815260206004820152601b60248201527f4d757374206861766520612076616c6964207265717565737449640000000000604482015290519081900360640190fd5b836106fe6113e5565b5060008181526001602081815260408084208151608081018352815481528185018054600160a060020a0380821684880190815274010000000000000000000000000000000000000000830460e060020a02600160e060020a0319908116868901908152780100000000000000000000000000000000000000000000000090940467ffffffffffffffff1660608701528b8b529888529489905591889055925192518451961686860152602486018c905260448087018c90528451808803909101815260649096019384905285519196959216939192918291908401908083835b602083106107fe5780518252601f1990920191602091820191016107df565b6001836020036101000a0380198251168184511680821785525050505050509050019150506000604051808303816000865af19150503d8060008114610860576040519150601f19603f3d011682016040523d82523d6000602084013e610865565b606091505b509098975050505050505050565b6060858585858560405160200180868152602001858152602001848152602001838051906020019060200280838360005b838110156108bc5781810151838201526020016108a4565b50505050919091019283525050604080518083038152602090920190529a9950505050505050505050565b60006108f68686868686610873565b80519060200120905095945050505050565b600054600160a060020a0316331461096a576040805160e560020a62461bcd02815260206004820152601360248201527f4d75737420757365204c494e4b20746f6b656e00000000000000000000000000604482015290519081900360640190fd5b61097261140c565b6004608482378051600160e060020a0319167fc3d2026f00000000000000000000000000000000000000000000000000000000146109fa576040805160e560020a62461bcd02815260206004820152601e60248201527f4d757374207573652077686974656c69737465642066756e6374696f6e730000604482015290519081900360640190fd5b836024830152826044830152600030600160a060020a0316836040518082805190602001908083835b60208310610a425780518252601f199092019160209182019101610a23565b6001836020036101000a038019825116818451168082178552505050505050905001915050600060405180830381855af49150503d8060008114610aa2576040519150601f19603f3d011682016040523d82523d6000602084013e610aa7565b606091505b50509050801515610b02576040805160e560020a62461bcd02815260206004820152601860248201527f556e61626c6520746f2063726561746520726571756573740000000000000000604482015290519081900360640190fd5b5050505050565b60008887148015610b1957508685145b8015610b2457508483145b1515610ba0576040805160e560020a62461bcd02815260206004820152602a60248201527f4d757374207061737320696e206173206d616e79207369676e6174757265732060448201527f6173206f7261636c657300000000000000000000000000000000000000000000606482015290519081900360840190fd5b428b11610c1d576040805160e560020a62461bcd02815260206004820152602d60248201527f456e64206f66205365727669636541677265656d656e74206d7573742062652060448201527f696e207468652066757475726500000000000000000000000000000000000000606482015290519081900360840190fd5b610c5e8d8d8d8d8d808060200260200160405190810160405280939291908181526020018383602002808284376000920191909152508992506108e7915050565b9050610d30818b8b8080602002602001604051908101604052809392919081815260200183836020028082843760009201919091525050604080516020808f0282810182019093528e82529093508e92508d91829185019084908082843760009201919091525050604080516020808e0282810182019093528d82529093508d92508c91829185019084908082843760009201919091525050604080516020808d0282810182019093528c82529093508c92508b9182918501908490808284376000920191909152506111a392505050565b60a0604051908101604052808e81526020018d81526020018c81526020018b8b80806020026020016040519081016040528093929190818152602001838360200280828437600092018290525093855250505060209182018590528381526002808352604091829020845181558484015160018201559184015190820155606083015180519192610dc99260038501929091019061142b565b5060809190910151600490910155604051829082907f77919e14b37beb51528107e030bd85fe76b9f9316ee1464f7ab2c41abb549fe990600090a39c9b505050505050505050505050565b600054600160a060020a03163314610e76576040805160e560020a62461bcd02815260206004820152601360248201527f4d75737420757365204c494e4b20746f6b656e00000000000000000000000000604482015290519081900360640190fd5b60008681526002602052604090205488908790821015610ee0576040805160e560020a62461bcd02815260206004820152601460248201527f42656c6f7720616772656564207061796d656e74000000000000000000000000604482015290519081900360640190fd5b6000548790600160a060020a0380831691161415610f48576040805160e560020a62461bcd02815260206004820152601760248201527f43616e6e6f742063616c6c6261636b20746f204c494e4b000000000000000000604482015290519081900360640190fd5b60408051600160a060020a038e166c010000000000000000000000000260208083019190915260348083018a9052835180840390910181526054909201835281519181019190912060008181526001928390529290922001547801000000000000000000000000000000000000000000000000900467ffffffffffffffff161561101c576040805160e560020a62461bcd02815260206004820152601460248201527f4d75737420757365206120756e69717565204944000000000000000000000000604482015290519081900360640190fd5b604080516080810182528d8152600160a060020a038b166020820152600160e060020a03198a1691810191909152606081016110604261012c63ffffffff6112bb16565b67ffffffffffffffff16815250600160008381526020019081526020016000206000820151816000015560208201518160010160006101000a815481600160a060020a030219169083600160a060020a0316021790555060408201518160010160146101000a81548163ffffffff021916908360e060020a9004021790555060608201518160010160186101000a81548167ffffffffffffffff021916908367ffffffffffffffff1602179055509050508b8d600160a060020a03168b7f6d6db1f8fe19d95b1d0fa6a4bce7bb24fbf84597b35a33ff95521fac453c152984600190048f8b8b60405180858152602001848152602001806020018281038252848482818152602001925080828437600083820152604051601f909101601f191690920182900397509095505050505050a450505050505050505050505050565b50565b60005b84518110156112b35760006112028786848151811015156111c357fe5b9060200190602002015186858151811015156111db57fe5b9060200190602002015186868151811015156111f357fe5b9060200190602002015161131f565b905080600160a060020a0316868381518110151561121c57fe5b60209081029091010151600160a060020a0316146112aa576040805160e560020a62461bcd02815260206004820152602860248201527f496e76616c6964206f7261636c65207369676e6174757265207370656369666960448201527f656420696e205341000000000000000000000000000000000000000000000000606482015290519081900360840190fd5b506001016111a6565b505050505050565b600082820183811015611318576040805160e560020a62461bcd02815260206004820152601260248201527f736f6d657468696e672068617070656e65640000000000000000000000000000604482015290519081900360640190fd5b9392505050565b6000808560405160200180807f19457468657265756d205369676e6564204d6573736167653a0a333200000000815250601c0182815260200191505060405160208183030381529060405280519060200120905060018186868660405160008152602001604052604051808581526020018460ff1660ff1681526020018381526020018281526020019450505050506020604051602081039080840390855afa1580156113d0573d6000803e3d6000fd5b5050604051601f190151979650505050505050565b60408051608081018252600080825260208201819052918101829052606081019190915290565b6020604051908101604052806001906020820280388339509192915050565b82805482825590600052602060002090810192821561148d579160200282015b8281111561148d578251825473ffffffffffffffffffffffffffffffffffffffff1916600160a060020a0390911617825560209092019160019091019061144b565b5061149992915061149d565b5090565b6114ce91905b8082111561149957805473ffffffffffffffffffffffffffffffffffffffff191681556001016114a3565b9056fea165627a7a72305820b30304538ba2e864fd8db7763051b648c14f451c0aa74c5c1ff730969104f65e0029",
  "source": "pragma solidity 0.5.0;\r\n\r\nimport \"../zeppelin/math/SafeMath.sol\";\r\nimport \"./interfaces/ChainlinkRequestInterface.sol\";\r\nimport \"./interfaces/CoordinatorInterface.sol\";\r\nimport \"./interfaces/LinkTokenInterface.sol\";\r\n\r\n// Coordinator handles oracle service aggreements between one or more oracles.\r\ncontract Coordinator is ChainlinkRequestInterface, CoordinatorInterface {\r\n  using SafeMath for uint256;\r\n\r\n  LinkTokenInterface internal LINK;\r\n\r\n  struct ServiceAgreement {\r\n    uint256 payment;\r\n    uint256 expiration;\r\n    uint256 endAt;\r\n    address[] oracles;\r\n    bytes32 requestDigest;\r\n  }\r\n\r\n  struct Callback {\r\n    uint256 amount;\r\n    address addr;\r\n    bytes4 functionId;\r\n    uint64 cancelExpiration;\r\n  }\r\n\r\n  mapping(bytes32 => Callback) private callbacks;\r\n  mapping(bytes32 => ServiceAgreement) public serviceAgreements;\r\n\r\n  constructor(address _link) public {\r\n    LINK = LinkTokenInterface(_link);\r\n  }\r\n\r\n  event RunRequest(\r\n    bytes32 indexed sAId,\r\n    address indexed requester,\r\n    uint256 indexed amount,\r\n    uint256 requestId,\r\n    uint256 version,\r\n    bytes data\r\n  );\r\n\r\n  event NewServiceAgreement(\r\n    bytes32 indexed said,\r\n    bytes32 indexed requestDigest\r\n  );\r\n\r\n  event CancelRequest(\r\n    bytes32 internalId\r\n  );\r\n\r\n  function onTokenTransfer(\r\n    address _sender,\r\n    uint256 _amount,\r\n    bytes memory _data\r\n  )\r\n    public\r\n    onlyLINK\r\n    permittedFunctionsForLINK\r\n  {\r\n    assembly {\r\n      // solium-disable-next-line security/no-low-level-calls\r\n      mstore(add(_data, 36), _sender) // ensure correct sender is passed\r\n      // solium-disable-next-line security/no-low-level-calls\r\n      mstore(add(_data, 68), _amount)    // ensure correct amount is passed\r\n    }\r\n    // solium-disable-next-line security/no-low-level-calls\r\n    (bool result,) = address(this).delegatecall(_data); // calls requestData\r\n    require(result, \"Unable to create request\");\r\n  }\r\n\r\n  function requestData(\r\n    address _sender,\r\n    uint256 _amount,\r\n    uint256 _version,\r\n    bytes32 _sAId,\r\n    address _callbackAddress,\r\n    bytes4 _callbackFunctionId,\r\n    uint256 _nonce,\r\n    bytes calldata _data\r\n  )\r\n    external\r\n    onlyLINK\r\n    sufficientLINK(_amount, _sAId)\r\n    checkCallbackAddress(_callbackAddress)\r\n  {\r\n    bytes32 requestId = keccak256(abi.encodePacked(_sender, _nonce));\r\n    require(callbacks[requestId].cancelExpiration == 0, \"Must use a unique ID\");\r\n    callbacks[requestId] = Callback(\r\n      _amount,\r\n      _callbackAddress,\r\n      _callbackFunctionId,\r\n      uint64(now.add(5 minutes)));\r\n    emit RunRequest(\r\n      _sAId,\r\n      _sender,\r\n      _amount,\r\n      uint256(requestId),\r\n      _version,\r\n      _data);\r\n  }\r\n\r\n  // This is mostly useful as a sanity check in the #getId test, because the\r\n  // hash value there is illegible by design.\r\n  function getPackedArguments(\r\n    uint256 _payment,\r\n    uint256 _expiration,\r\n    uint256 _endAt,\r\n    address[] memory _oracles,\r\n    bytes32 _requestDigest\r\n  )\r\n    public\r\n    pure\r\n    returns (bytes memory)\r\n  {\r\n    return abi.encodePacked(_payment, _expiration, _endAt, _oracles, _requestDigest);\r\n  }\r\n\r\n  function getId(\r\n    uint256 _payment,\r\n    uint256 _expiration,\r\n    uint256 _endAt,\r\n    address[] memory _oracles,\r\n    bytes32 _requestDigest\r\n  )\r\n    public pure returns (bytes32)\r\n  {\r\n    return keccak256(getPackedArguments(_payment, _expiration, _endAt, _oracles, _requestDigest));\r\n  }\r\n\r\n  function initiateServiceAgreement(\r\n    uint256 _payment,\r\n    uint256 _expiration,\r\n    uint256 _endAt,\r\n    address[] calldata _oracles,\r\n    uint8[] calldata _vs,\r\n    bytes32[] calldata _rs,\r\n    bytes32[] calldata _ss,\r\n    bytes32 _requestDigest\r\n  )\r\n    external\r\n    returns (bytes32 serviceAgreementID)\r\n  {\r\n    require(_oracles.length == _vs.length && _vs.length == _rs.length && _rs.length == _ss.length, \"Must pass in as many signatures as oracles\"); /* solium-disable-line max-len */\r\n    require(_endAt > block.timestamp, \"End of ServiceAgreement must be in the future\");\r\n\r\n    serviceAgreementID = getId(_payment, _expiration, _endAt, _oracles, _requestDigest);\r\n\r\n    verifyOracleSignatures(serviceAgreementID, _oracles, _vs, _rs, _ss);\r\n\r\n    serviceAgreements[serviceAgreementID] = ServiceAgreement(\r\n      _payment,\r\n      _expiration,\r\n      _endAt,\r\n      _oracles,\r\n      _requestDigest\r\n    );\r\n\r\n    emit NewServiceAgreement(serviceAgreementID, _requestDigest);\r\n  }\r\n\r\n  function verifyOracleSignatures(\r\n    bytes32 _serviceAgreementID,\r\n    address[] memory _oracles,\r\n    uint8[] memory _vs,\r\n    bytes32[] memory _rs,\r\n    bytes32[] memory _ss\r\n  )\r\n    private pure\r\n  {\r\n    for (uint i = 0; i < _oracles.length; i++) {\r\n      address signer = getOracleAddressFromSASignature(_serviceAgreementID, _vs[i], _rs[i], _ss[i]);\r\n      require(_oracles[i] == signer, \"Invalid oracle signature specified in SA\");\r\n    }\r\n\r\n  }\r\n\r\n  function getOracleAddressFromSASignature(\r\n    bytes32 _serviceAgreementID,\r\n    uint8 _v,\r\n    bytes32 _r,\r\n    bytes32 _s\r\n  )\r\n    private pure returns (address)\r\n  {\r\n    bytes32 prefixedHash = keccak256(abi.encodePacked(\"\\x19Ethereum Signed Message:\\n32\", _serviceAgreementID));\r\n    return ecrecover(prefixedHash, _v, _r, _s);\r\n  }\r\n\r\n  modifier onlyLINK() {\r\n    require(msg.sender == address(LINK), \"Must use LINK token\"); \r\n    _;\r\n  }\r\n\r\n  modifier permittedFunctionsForLINK() {\r\n    bytes4[1] memory funcSelector;\r\n    assembly {\r\n      // solium-disable-next-line security/no-low-level-calls\r\n      calldatacopy(funcSelector, 132, 4) // grab function selector from calldata\r\n    }\r\n    require(funcSelector[0] == this.requestData.selector, \"Must use whitelisted functions\");\r\n    _;\r\n  }\r\n\r\n  modifier sufficientLINK(uint256 _amount, bytes32 _sAId) {\r\n    require(_amount >= serviceAgreements[_sAId].payment, \"Below agreed payment\");\r\n    _;\r\n  }\r\n\r\n  modifier isValidRequest(uint256 _requestId) {\r\n    require(callbacks[bytes32(_requestId)].addr != address(0), \"Must have a valid requestId\");\r\n    _;\r\n  }\r\n\r\n  function fulfillData(\r\n    uint256 _requestId,\r\n    bytes32 _data\r\n  )\r\n    external\r\n    isValidRequest(_requestId)\r\n    returns (bool)\r\n  {\r\n    bytes32 requestId = bytes32(_requestId);\r\n    Callback memory callback = callbacks[requestId];\r\n    delete callbacks[requestId];\r\n    // All updates to the oracle's fulfillment should come before calling the\r\n    // callback(addr+functionId) as it is untrusted. See:\r\n    // https://solidity.readthedocs.io/en/develop/security-considerations.html#use-the-checks-effects-interactions-pattern\r\n    (bool response,) = callback.addr.call(abi.encodePacked(callback.functionId, _requestId, _data));\r\n    return response; // solium-disable-line security/no-low-level-calls\r\n  }\r\n\r\n  // Necessary to implement ChainlinkRequestInterface\r\n  function cancel(bytes32) external {}\r\n\r\n  modifier checkCallbackAddress(address _to) {\r\n    require(_to != address(LINK), \"Cannot callback to LINK\");\r\n    _;\r\n  }\r\n}\r\n",
  "sourcePath": "C:/Users/HP/Desktop/programming-resources/HydroBlockchain/vaultWallet/smart-contracts/snowflake/contracts/Chainlink/Coordinator.sol",
  "compiler": {
    "name": "solc",
    "version": "0.5.0+commit.1d4f565a.Emscripten.clang"
  },
  "schemaVersion": "3.0.10",
  "updatedAt": "2020-08-17T10:44:15.779Z",
  "devdoc": {
    "methods": {}
  },
  "userdoc": {
    "methods": {}
  }
}