{
  "contractName": "Oracle",
  "abi": [
    {
      "constant": true,
      "inputs": [],
      "name": "EXPIRY_TIME",
      "outputs": [
        {
          "name": "",
          "type": "uint256"
        }
      ],
      "payable": false,
      "stateMutability": "view",
      "type": "function"
    },
    {
      "constant": false,
      "inputs": [],
      "name": "renounceOwnership",
      "outputs": [],
      "payable": false,
      "stateMutability": "nonpayable",
      "type": "function"
    },
    {
      "constant": true,
      "inputs": [],
      "name": "owner",
      "outputs": [
        {
          "name": "",
          "type": "address"
        }
      ],
      "payable": false,
      "stateMutability": "view",
      "type": "function"
    },
    {
      "constant": true,
      "inputs": [],
      "name": "isOwner",
      "outputs": [
        {
          "name": "",
          "type": "bool"
        }
      ],
      "payable": false,
      "stateMutability": "view",
      "type": "function"
    },
    {
      "constant": false,
      "inputs": [
        {
          "name": "newOwner",
          "type": "address"
        }
      ],
      "name": "transferOwnership",
      "outputs": [],
      "payable": false,
      "stateMutability": "nonpayable",
      "type": "function"
    },
    {
      "inputs": [
        {
          "name": "_link",
          "type": "address"
        }
      ],
      "payable": false,
      "stateMutability": "nonpayable",
      "type": "constructor"
    },
    {
      "anonymous": false,
      "inputs": [
        {
          "indexed": true,
          "name": "specId",
          "type": "bytes32"
        },
        {
          "indexed": true,
          "name": "requester",
          "type": "address"
        },
        {
          "indexed": true,
          "name": "amount",
          "type": "uint256"
        },
        {
          "indexed": false,
          "name": "requestId",
          "type": "uint256"
        },
        {
          "indexed": false,
          "name": "version",
          "type": "uint256"
        },
        {
          "indexed": false,
          "name": "data",
          "type": "bytes"
        }
      ],
      "name": "RunRequest",
      "type": "event"
    },
    {
      "anonymous": false,
      "inputs": [
        {
          "indexed": false,
          "name": "requestId",
          "type": "bytes32"
        }
      ],
      "name": "CancelRequest",
      "type": "event"
    },
    {
      "anonymous": false,
      "inputs": [
        {
          "indexed": true,
          "name": "previousOwner",
          "type": "address"
        },
        {
          "indexed": true,
          "name": "newOwner",
          "type": "address"
        }
      ],
      "name": "OwnershipTransferred",
      "type": "event"
    },
    {
      "constant": false,
      "inputs": [
        {
          "name": "_sender",
          "type": "address"
        },
        {
          "name": "_amount",
          "type": "uint256"
        },
        {
          "name": "_data",
          "type": "bytes"
        }
      ],
      "name": "onTokenTransfer",
      "outputs": [],
      "payable": false,
      "stateMutability": "nonpayable",
      "type": "function"
    },
    {
      "constant": false,
      "inputs": [
        {
          "name": "_sender",
          "type": "address"
        },
        {
          "name": "_amount",
          "type": "uint256"
        },
        {
          "name": "_version",
          "type": "uint256"
        },
        {
          "name": "_specId",
          "type": "bytes32"
        },
        {
          "name": "_callbackAddress",
          "type": "address"
        },
        {
          "name": "_callbackFunctionId",
          "type": "bytes4"
        },
        {
          "name": "_nonce",
          "type": "uint256"
        },
        {
          "name": "_data",
          "type": "bytes"
        }
      ],
      "name": "requestData",
      "outputs": [],
      "payable": false,
      "stateMutability": "nonpayable",
      "type": "function"
    },
    {
      "constant": false,
      "inputs": [
        {
          "name": "_requestId",
          "type": "uint256"
        },
        {
          "name": "_data",
          "type": "bytes32"
        }
      ],
      "name": "fulfillData",
      "outputs": [
        {
          "name": "",
          "type": "bool"
        }
      ],
      "payable": false,
      "stateMutability": "nonpayable",
      "type": "function"
    },
    {
      "constant": true,
      "inputs": [
        {
          "name": "_node",
          "type": "address"
        }
      ],
      "name": "getAuthorizationStatus",
      "outputs": [
        {
          "name": "",
          "type": "bool"
        }
      ],
      "payable": false,
      "stateMutability": "view",
      "type": "function"
    },
    {
      "constant": false,
      "inputs": [
        {
          "name": "_node",
          "type": "address"
        },
        {
          "name": "_allowed",
          "type": "bool"
        }
      ],
      "name": "setFulfillmentPermission",
      "outputs": [],
      "payable": false,
      "stateMutability": "nonpayable",
      "type": "function"
    },
    {
      "constant": false,
      "inputs": [
        {
          "name": "_recipient",
          "type": "address"
        },
        {
          "name": "_amount",
          "type": "uint256"
        }
      ],
      "name": "withdraw",
      "outputs": [],
      "payable": false,
      "stateMutability": "nonpayable",
      "type": "function"
    },
    {
      "constant": true,
      "inputs": [],
      "name": "withdrawable",
      "outputs": [
        {
          "name": "",
          "type": "uint256"
        }
      ],
      "payable": false,
      "stateMutability": "view",
      "type": "function"
    },
    {
      "constant": false,
      "inputs": [
        {
          "name": "_requestId",
          "type": "bytes32"
        }
      ],
      "name": "cancel",
      "outputs": [],
      "payable": false,
      "stateMutability": "nonpayable",
      "type": "function"
    }
  ],
  "bytecode": "0x6080604052600160045534801561001557600080fd5b5060405160208061165b8339810180604052602081101561003557600080fd5b505160008054600160a060020a0319163317808255604051600160a060020a039190911691907f8be0079c531659141344cd1fd0a4f28419497f9722a3daafe3b4186f6b6457e0908290a360018054600160a060020a031916600160a060020a03929092169190911790556115ac806100af6000396000f3fe6080604052600436106100ab5763ffffffff60e060020a6000350416634b60228281146100b057806350188301146100d7578063715018a6146100ec57806376005c26146101035780637fcd56db146101475780638da5cb5b146101825780638f32d59b146101b3578063a4c0ed36146101c8578063c3d2026f14610290578063c4d252f514610350578063d3e9c3141461037a578063f2fde38b146103ad578063f3fef3a3146103e0575b600080fd5b3480156100bc57600080fd5b506100c5610419565b60408051918252519081900360200190f35b3480156100e357600080fd5b506100c561041f565b3480156100f857600080fd5b50610101610486565b005b34801561010f57600080fd5b506101336004803603604081101561012657600080fd5b5080359060200135610529565b604080519115158252519081900360200190f35b34801561015357600080fd5b506101016004803603604081101561016a57600080fd5b50600160a060020a0381351690602001351515610879565b34801561018e57600080fd5b506101976108f0565b60408051600160a060020a039092168252519081900360200190f35b3480156101bf57600080fd5b506101336108ff565b3480156101d457600080fd5b50610101600480360360608110156101eb57600080fd5b600160a060020a038235169160208101359181019060608101604082013564010000000081111561021b57600080fd5b82018360208201111561022d57600080fd5b8035906020019184600183028401116401000000008311171561024f57600080fd5b91908080601f016020809104026020016040519081016040528093929190818152602001838380828437600092019190915250929550610910945050505050565b34801561029c57600080fd5b5061010160048036036101008110156102b457600080fd5b600160a060020a038235811692602081013592604082013592606083013592608081013590911691600160e060020a031960a0830135169160c081013591810190610100810160e082013564010000000081111561031157600080fd5b82018360208201111561032357600080fd5b8035906020019184600183028401116401000000008311171561034557600080fd5b509092509050610b68565b34801561035c57600080fd5b506101016004803603602081101561037357600080fd5b5035610e80565b34801561038657600080fd5b506101336004803603602081101561039d57600080fd5b5035600160a060020a0316611123565b3480156103b957600080fd5b50610101600480360360208110156103d057600080fd5b5035600160a060020a0316611141565b3480156103ec57600080fd5b506101016004803603604081101561040357600080fd5b50600160a060020a038135169060200135611199565b61012c81565b60006104296108ff565b151561046d576040805160e560020a62461bcd02815260206004820152601b6024820152600080516020611561833981519152604482015290519081900360640190fd5b60045461048190600163ffffffff61138716565b905090565b61048e6108ff565b15156104d2576040805160e560020a62461bcd02815260206004820152601b6024820152600080516020611561833981519152604482015290519081900360640190fd5b60008054604051600160a060020a03909116907f8be0079c531659141344cd1fd0a4f28419497f9722a3daafe3b4186f6b6457e0908390a36000805473ffffffffffffffffffffffffffffffffffffffff19169055565b3360009081526003602052604081205460ff168061055f575061054a6108f0565b600160a060020a031633600160a060020a0316145b15156105db576040805160e560020a62461bcd02815260206004820152602a60248201527f4e6f7420616e20617574686f72697a6564206e6f646520746f2066756c66696c60448201527f6c20726571756573747300000000000000000000000000000000000000000000606482015290519081900360840190fd5b6000838152600260205260409020600101548390600160a060020a0316151561064e576040805160e560020a62461bcd02815260206004820152601b60248201527f4d757374206861766520612076616c6964207265717565737449640000000000604482015290519081900360640190fd5b83610657611539565b5060008181526002602090815260409182902082516080810184528154808252600190920154600160a060020a0381169382019390935274010000000000000000000000000000000000000000830460e060020a02600160e060020a0319169381019390935260c060020a90910467ffffffffffffffff1660608301526004546106e0916113e7565b60045560008281526002602052604081208181556001015562061a805a1015610753576040805160e560020a62461bcd02815260206004820181905260248201527f4d7573742070726f7669646520636f6e73756d657220656e6f75676820676173604482015290519081900360640190fd5b60008160200151600160a060020a03168260400151848860405160200180847bffffffffffffffffffffffffffffffffffffffffffffffffffffffff19167bffffffffffffffffffffffffffffffffffffffffffffffffffffffff1916815260040183815260200182815260200193505050506040516020818303038152906040526040518082805190602001908083835b602083106108045780518252601f1990920191602091820191016107e5565b6001836020036101000a0380198251168184511680821785525050505050509050019150506000604051808303816000865af19150503d8060008114610866576040519150601f19603f3d011682016040523d82523d6000602084013e61086b565b606091505b509098975050505050505050565b6108816108ff565b15156108c5576040805160e560020a62461bcd02815260206004820152601b6024820152600080516020611561833981519152604482015290519081900360640190fd5b600160a060020a03919091166000908152600360205260409020805460ff1916911515919091179055565b600054600160a060020a031690565b600054600160a060020a0316331490565b600154600160a060020a03163314610972576040805160e560020a62461bcd02815260206004820152601360248201527f4d75737420757365204c494e4b20746f6b656e00000000000000000000000000604482015290519081900360640190fd5b8051819061012411156109cf576040805160e560020a62461bcd02815260206004820152601760248201527f43616e6e6f742063616c6c6261636b20746f204c494e4b000000000000000000604482015290519081900360640190fd5b60208201518290600160e060020a031981167fc3d2026f0000000000000000000000000000000000000000000000000000000014610a57576040805160e560020a62461bcd02815260206004820152601e60248201527f4d757374207573652077686974656c69737465642066756e6374696f6e730000604482015290519081900360640190fd5b856024850152846044850152600030600160a060020a0316856040518082805190602001908083835b60208310610a9f5780518252601f199092019160209182019101610a80565b6001836020036101000a038019825116818451168082178552505050505050905001915050600060405180830381855af49150503d8060008114610aff576040519150601f19603f3d011682016040523d82523d6000602084013e610b04565b606091505b50509050801515610b5f576040805160e560020a62461bcd02815260206004820152601860248201527f556e61626c6520746f2063726561746520726571756573740000000000000000604482015290519081900360640190fd5b50505050505050565b600154600160a060020a03163314610bca576040805160e560020a62461bcd02815260206004820152601360248201527f4d75737420757365204c494e4b20746f6b656e00000000000000000000000000604482015290519081900360640190fd5b6001548590600160a060020a0380831691161415610c32576040805160e560020a62461bcd02815260206004820152601760248201527f43616e6e6f742063616c6c6261636b20746f204c494e4b000000000000000000604482015290519081900360640190fd5b60408051600160a060020a038c166c010000000000000000000000000260208083019190915260348083018890528351808403909101815260549092018352815191810191909120600081815260029092529190206001015460c060020a900467ffffffffffffffff1615610cf1576040805160e560020a62461bcd02815260206004820152601460248201527f4d75737420757365206120756e69717565204944000000000000000000000000604482015290519081900360640190fd5b604080516080810182528b8152600160a060020a0389166020820152600160e060020a031988169181019190915260608101610d354261012c63ffffffff6113e716565b67ffffffffffffffff9081169091526000838152600260209081526040918290208451815584820151600190910180548685015160609788015173ffffffffffffffffffffffffffffffffffffffff19909216600160a060020a039485161777ffffffff000000000000000000000000000000000000000019167401000000000000000000000000000000000000000060e060020a909204919091021777ffffffffffffffffffffffffffffffffffffffffffffffff1660c060020a91909616029490941790935581518581529081018d90529081018381529281018690528c92918e16918b917f6d6db1f8fe19d95b1d0fa6a4bce7bb24fbf84597b35a33ff95521fac453c15299186918f918b918b9160808201848480828437600083820152604051601f909101601f191690920182900397509095505050505050a45050505050505050505050565b600081815260026020526040902060010154600160a060020a03163314610ef1576040805160e560020a62461bcd02815260206004820152601d60248201527f4d7573742062652063616c6c65642066726f6d20726571756573746572000000604482015290519081900360640190fd5b6000818152600260205260409020600101544260c060020a90910467ffffffffffffffff161115610f6c576040805160e560020a62461bcd02815260206004820152601660248201527f52657175657374206973206e6f74206578706972656400000000000000000000604482015290519081900360640190fd5b610f74611539565b50600081815260026020908152604080832081516080810183528154808252600192830154600160a060020a0380821684880181905274010000000000000000000000000000000000000000830460e060020a02600160e060020a0319168588015260c060020a90920467ffffffffffffffff166060850152935485517fa9059cbb000000000000000000000000000000000000000000000000000000008152600481019290925260248201929092529351919592169363a9059cbb93604480820194929392918390030190829087803b15801561105157600080fd5b505af1158015611065573d6000803e3d6000fd5b505050506040513d602081101561107b57600080fd5b505115156110d3576040805160e560020a62461bcd02815260206004820152601260248201527f556e61626c6520746f207472616e736665720000000000000000000000000000604482015290519081900360640190fd5b600082815260026020908152604080832083815560010192909255815184815291517f2002125a4b5064a9eee28f96e8999ee0f26ffc896f5ee4d869f37c8f53c52e069281900390910190a15050565b600160a060020a031660009081526003602052604090205460ff1690565b6111496108ff565b151561118d576040805160e560020a62461bcd02815260206004820152601b6024820152600080516020611561833981519152604482015290519081900360640190fd5b6111968161144b565b50565b6111a16108ff565b15156111e5576040805160e560020a62461bcd02815260206004820152601b6024820152600080516020611561833981519152604482015290519081900360640190fd5b806111f781600163ffffffff6113e716565b6004541015611276576040805160e560020a62461bcd02815260206004820152603560248201527f416d6f756e74207265717565737465642069732067726561746572207468616e60448201527f20776974686472617761626c652062616c616e63650000000000000000000000606482015290519081900360840190fd5b600454611289908363ffffffff61138716565b6004908155600154604080517fa9059cbb000000000000000000000000000000000000000000000000000000008152600160a060020a0387811694820194909452602481018690529051929091169163a9059cbb916044808201926020929091908290030181600087803b15801561130057600080fd5b505af1158015611314573d6000803e3d6000fd5b505050506040513d602081101561132a57600080fd5b50511515611382576040805160e560020a62461bcd02815260206004820152601760248201527f4661696c656420746f207472616e73666572204c494e4b000000000000000000604482015290519081900360640190fd5b505050565b6000828211156113e1576040805160e560020a62461bcd02815260206004820152601260248201527f736f6d657468696e672068617070656e65640000000000000000000000000000604482015290519081900360640190fd5b50900390565b600082820183811015611444576040805160e560020a62461bcd02815260206004820152601260248201527f736f6d657468696e672068617070656e65640000000000000000000000000000604482015290519081900360640190fd5b9392505050565b600160a060020a03811615156114d1576040805160e560020a62461bcd02815260206004820152602260248201527f6e6577206f776e65722061646472657373206d757374206e6f74206265207a6560448201527f726f000000000000000000000000000000000000000000000000000000000000606482015290519081900360840190fd5b60008054604051600160a060020a03808516939216917f8be0079c531659141344cd1fd0a4f28419497f9722a3daafe3b4186f6b6457e091a36000805473ffffffffffffffffffffffffffffffffffffffff1916600160a060020a0392909216919091179055565b6040805160808101825260008082526020820181905291810182905260608101919091529056fe4d7573742062652063616c6c656420627920746865206f776e65720000000000a165627a7a723058205e53bddd998675702c1b991e8e0d9173438d2c5e661e97a7b4edebf5da24d0ce0029",
  "source": "pragma solidity 0.5.0;\r\n\r\nimport \"../zeppelin/ownership/Ownable.sol\";\r\nimport \"../zeppelin/math/SafeMath.sol\";\r\nimport \"./interfaces/ChainlinkRequestInterface.sol\";\r\nimport \"./interfaces/OracleInterface.sol\";\r\nimport \"./interfaces/LinkTokenInterface.sol\";\r\n\r\ncontract Oracle is ChainlinkRequestInterface, OracleInterface, Ownable {\r\n  using SafeMath for uint256;\r\n\r\n  uint256 constant public EXPIRY_TIME = 5 minutes;\r\n  uint256 constant private MINIMUM_CONSUMER_GAS_LIMIT = 400000;\r\n  // We initialize fields to 1 instead of 0 so that the first invocation\r\n  // does not cost more gas.\r\n  uint256 constant private ONE_FOR_CONSISTENT_GAS_COST = 1;\r\n  uint256 constant private SELECTOR_LENGTH = 4;\r\n  uint256 constant private EXPECTED_REQUEST_WORDS = 9;\r\n  // solium-disable-next-line zeppelin/no-arithmetic-operations\r\n  uint256 constant private MINIMUM_REQUEST_LENGTH = SELECTOR_LENGTH + (32 * EXPECTED_REQUEST_WORDS);\r\n\r\n  struct Callback {\r\n    uint256 amount;\r\n    address addr;\r\n    bytes4 functionId;\r\n    uint64 cancelExpiration;\r\n  }\r\n\r\n  LinkTokenInterface internal LINK;\r\n  mapping(bytes32 => Callback) private callbacks;\r\n  mapping(address => bool) private authorizedNodes;\r\n  uint256 private withdrawableTokens = ONE_FOR_CONSISTENT_GAS_COST;\r\n\r\n  event RunRequest(\r\n    bytes32 indexed specId,\r\n    address indexed requester,\r\n    uint256 indexed amount,\r\n    uint256 requestId,\r\n    uint256 version,\r\n    bytes data\r\n  );\r\n\r\n  event CancelRequest(\r\n    bytes32 requestId\r\n  );\r\n\r\n  constructor(address _link) Ownable() public {\r\n    LINK = LinkTokenInterface(_link);\r\n  }\r\n\r\n  function onTokenTransfer(\r\n    address _sender,\r\n    uint256 _amount,\r\n    bytes memory _data\r\n  )\r\n    public\r\n    onlyLINK\r\n    validRequestLength(_data)\r\n    permittedFunctionsForLINK(_data)\r\n  {\r\n    assembly {\r\n      // solium-disable-next-line security/no-low-level-calls\r\n      mstore(add(_data, 36), _sender) // ensure correct sender is passed\r\n      // solium-disable-next-line security/no-low-level-calls\r\n      mstore(add(_data, 68), _amount)    // ensure correct amount is passed\r\n    }\r\n    // solium-disable-next-line security/no-low-level-calls\r\n    (bool result,) = address(this).delegatecall(_data);\r\n    require(result, \"Unable to create request\");\r\n     // calls requestData\r\n  }\r\n\r\n  function requestData(\r\n    address _sender,\r\n    uint256 _amount,\r\n    uint256 _version,\r\n    bytes32 _specId,\r\n    address _callbackAddress,\r\n    bytes4 _callbackFunctionId,\r\n    uint256 _nonce,\r\n    bytes calldata _data\r\n  )\r\n    external\r\n    onlyLINK\r\n    checkCallbackAddress(_callbackAddress)\r\n  {\r\n    bytes32 requestId = keccak256(abi.encodePacked(_sender, _nonce));\r\n    require(callbacks[requestId].cancelExpiration == 0, \"Must use a unique ID\");\r\n    callbacks[requestId] = Callback(\r\n      _amount,\r\n      _callbackAddress,\r\n      _callbackFunctionId,\r\n      uint64(now.add(EXPIRY_TIME)));\r\n    emit RunRequest(\r\n      _specId,\r\n      _sender,\r\n      _amount,\r\n      uint256(requestId),\r\n      _version,\r\n      _data);\r\n  }\r\n\r\n  function fulfillData(\r\n    uint256 _requestId,\r\n    bytes32 _data\r\n  )\r\n    external\r\n    onlyAuthorizedNode\r\n    isValidRequest(_requestId)\r\n    returns (bool)\r\n  {\r\n    bytes32 requestId = bytes32(_requestId);\r\n    Callback memory callback = callbacks[requestId];\r\n    withdrawableTokens = withdrawableTokens.add(callback.amount);\r\n    delete callbacks[requestId];\r\n    require(gasleft() >= MINIMUM_CONSUMER_GAS_LIMIT, \"Must provide consumer enough gas\");\r\n    // All updates to the oracle's fulfillment should come before calling the\r\n    // callback(addr+functionId) as it is untrusted.\r\n    // See: https://solidity.readthedocs.io/en/develop/security-considerations.html#use-the-checks-effects-interactions-pattern\r\n    (bool response, ) = callback.addr.call(abi.encodePacked(callback.functionId, requestId, _data));\r\n    return response; // solium-disable-line security/no-low-level-calls\r\n  }\r\n\r\n  function getAuthorizationStatus(address _node) external view returns (bool) {\r\n    return authorizedNodes[_node];\r\n  }\r\n\r\n  function setFulfillmentPermission(address _node, bool _allowed) external onlyOwner {\r\n    authorizedNodes[_node] = _allowed;\r\n  }\r\n\r\n  function withdraw(address _recipient, uint256 _amount)\r\n    external\r\n    onlyOwner\r\n    hasAvailableFunds(_amount)\r\n  {\r\n    withdrawableTokens = withdrawableTokens.sub(_amount);\r\n    require(LINK.transfer(_recipient, _amount), \"Failed to transfer LINK\");\r\n  }\r\n\r\n  function withdrawable() external view onlyOwner returns (uint256) {\r\n    return withdrawableTokens.sub(ONE_FOR_CONSISTENT_GAS_COST);\r\n  }\r\n\r\n  function cancel(bytes32 _requestId)\r\n    external\r\n  {\r\n    require(msg.sender == callbacks[_requestId].addr, \"Must be called from requester\");\r\n    require(callbacks[_requestId].cancelExpiration <= now, \"Request is not expired\");\r\n    Callback memory cb = callbacks[_requestId];\r\n    require(LINK.transfer(cb.addr, cb.amount), \"Unable to transfer\");\r\n    delete callbacks[_requestId];\r\n    emit CancelRequest(_requestId);\r\n  }\r\n\r\n  // MODIFIERS\r\n\r\n  modifier hasAvailableFunds(uint256 _amount) {\r\n    require(withdrawableTokens >= _amount.add(ONE_FOR_CONSISTENT_GAS_COST), \"Amount requested is greater than withdrawable balance\");\r\n    _;\r\n  }\r\n\r\n  modifier isValidRequest(uint256 _requestId) {\r\n    require(callbacks[bytes32(_requestId)].addr != address(0), \"Must have a valid requestId\");\r\n    _;\r\n  }\r\n\r\n  modifier onlyAuthorizedNode() {\r\n    require(authorizedNodes[msg.sender] || msg.sender == owner(), \"Not an authorized node to fulfill requests\");\r\n    _;\r\n  }\r\n\r\n  modifier onlyLINK() {\r\n    require(msg.sender == address(LINK), \"Must use LINK token\");\r\n    _;\r\n  }\r\n\r\n  modifier permittedFunctionsForLINK(bytes memory _data) {\r\n    bytes4 funcSelector;\r\n    assembly {\r\n      // solium-disable-next-line security/no-low-level-calls\r\n      funcSelector := mload(add(_data, 32))\r\n    }\r\n    require(funcSelector == this.requestData.selector, \"Must use whitelisted functions\");\r\n    _;\r\n  }\r\n\r\n  modifier checkCallbackAddress(address _to) {\r\n    require(_to != address(LINK), \"Cannot callback to LINK\");\r\n    _;\r\n  }\r\n\r\n  modifier validRequestLength(bytes memory _data) {\r\n    require(_data.length >= MINIMUM_REQUEST_LENGTH, \"Cannot callback to LINK\");\r\n    _;\r\n  }\r\n\r\n}\r\n",
  "sourcePath": "C:/Users/HP/Desktop/programming-resources/HydroBlockchain/vaultWallet/smart-contracts/snowflake/contracts/Chainlink/Oracle.sol",
  "compiler": {
    "name": "solc",
    "version": "0.5.0+commit.1d4f565a.Emscripten.clang"
  },
  "schemaVersion": "3.0.10",
  "updatedAt": "2020-08-17T11:17:49.338Z",
  "devdoc": {
    "methods": {
      "isOwner()": {
        "return": "true if `msg.sender` is the owner of the contract.\r"
      },
      "owner()": {
        "return": "the address of the owner.\r"
      },
      "renounceOwnership()": {
        "details": "Allows the current owner to relinquish control of the contract.\r"
      },
      "transferOwnership(address)": {
        "details": "Allows the current owner to transfer control of the contract to a newOwner.\r",
        "params": {
          "newOwner": "The address to transfer ownership to.\r"
        }
      }
    }
  },
  "userdoc": {
    "methods": {
      "renounceOwnership()": {
        "notice": "Renouncing to ownership will leave the contract without an owner.\r It will not be possible to call the functions with the `onlyOwner`\r modifier anymore.\r"
      }
    }
  }
}