{
  "contractName": "Resolver",
  "abi": [
    {
      "constant": false,
      "inputs": [],
      "name": "renounceOwnership",
      "outputs": [],
      "payable": false,
      "stateMutability": "nonpayable",
      "type": "function"
    },
    {
      "constant": true,
      "inputs": [],
      "name": "callOnAddition",
      "outputs": [
        {
          "name": "",
          "type": "bool"
        }
      ],
      "payable": false,
      "stateMutability": "view",
      "type": "function"
    },
    {
      "constant": true,
      "inputs": [],
      "name": "snowflakeDescription",
      "outputs": [
        {
          "name": "",
          "type": "string"
        }
      ],
      "payable": false,
      "stateMutability": "view",
      "type": "function"
    },
    {
      "constant": true,
      "inputs": [],
      "name": "snowflakeName",
      "outputs": [
        {
          "name": "",
          "type": "string"
        }
      ],
      "payable": false,
      "stateMutability": "view",
      "type": "function"
    },
    {
      "constant": true,
      "inputs": [],
      "name": "owner",
      "outputs": [
        {
          "name": "",
          "type": "address"
        }
      ],
      "payable": false,
      "stateMutability": "view",
      "type": "function"
    },
    {
      "constant": true,
      "inputs": [],
      "name": "callOnRemoval",
      "outputs": [
        {
          "name": "",
          "type": "bool"
        }
      ],
      "payable": false,
      "stateMutability": "view",
      "type": "function"
    },
    {
      "constant": true,
      "inputs": [],
      "name": "isOwner",
      "outputs": [
        {
          "name": "",
          "type": "bool"
        }
      ],
      "payable": false,
      "stateMutability": "view",
      "type": "function"
    },
    {
      "constant": false,
      "inputs": [
        {
          "name": "newOwner",
          "type": "address"
        }
      ],
      "name": "transferOwnership",
      "outputs": [],
      "payable": false,
      "stateMutability": "nonpayable",
      "type": "function"
    },
    {
      "constant": true,
      "inputs": [],
      "name": "snowflakeAddress",
      "outputs": [
        {
          "name": "",
          "type": "address"
        }
      ],
      "payable": false,
      "stateMutability": "view",
      "type": "function"
    },
    {
      "inputs": [
        {
          "name": "snowflakeAddress",
          "type": "address"
        }
      ],
      "payable": false,
      "stateMutability": "nonpayable",
      "type": "constructor"
    },
    {
      "anonymous": false,
      "inputs": [
        {
          "indexed": true,
          "name": "previousOwner",
          "type": "address"
        },
        {
          "indexed": true,
          "name": "newOwner",
          "type": "address"
        }
      ],
      "name": "OwnershipTransferred",
      "type": "event"
    },
    {
      "constant": false,
      "inputs": [
        {
          "name": "snowflakeAddress",
          "type": "address"
        }
      ],
      "name": "setSnowflakeAddress",
      "outputs": [],
      "payable": false,
      "stateMutability": "nonpayable",
      "type": "function"
    },
    {
      "constant": false,
      "inputs": [
        {
          "name": "ein",
          "type": "uint256"
        },
        {
          "name": "allowance",
          "type": "uint256"
        },
        {
          "name": "",
          "type": "bytes"
        }
      ],
      "name": "onAddition",
      "outputs": [
        {
          "name": "",
          "type": "bool"
        }
      ],
      "payable": false,
      "stateMutability": "nonpayable",
      "type": "function"
    },
    {
      "constant": false,
      "inputs": [
        {
          "name": "",
          "type": "uint256"
        },
        {
          "name": "",
          "type": "bytes"
        }
      ],
      "name": "onRemoval",
      "outputs": [
        {
          "name": "",
          "type": "bool"
        }
      ],
      "payable": false,
      "stateMutability": "nonpayable",
      "type": "function"
    },
    {
      "constant": false,
      "inputs": [
        {
          "name": "einFrom",
          "type": "uint256"
        },
        {
          "name": "einTo",
          "type": "uint256"
        },
        {
          "name": "amount",
          "type": "uint256"
        }
      ],
      "name": "transferSnowflakeBalanceFromAllowAndCall",
      "outputs": [],
      "payable": false,
      "stateMutability": "nonpayable",
      "type": "function"
    },
    {
      "constant": false,
      "inputs": [
        {
          "name": "einTo",
          "type": "uint256"
        },
        {
          "name": "amount",
          "type": "uint256"
        }
      ],
      "name": "transferSnowflakeBalanceFrom",
      "outputs": [],
      "payable": false,
      "stateMutability": "nonpayable",
      "type": "function"
    },
    {
      "constant": false,
      "inputs": [
        {
          "name": "to",
          "type": "address"
        },
        {
          "name": "amount",
          "type": "uint256"
        }
      ],
      "name": "withdrawSnowflakeBalanceFrom",
      "outputs": [],
      "payable": false,
      "stateMutability": "nonpayable",
      "type": "function"
    },
    {
      "constant": false,
      "inputs": [
        {
          "name": "via",
          "type": "address"
        },
        {
          "name": "einTo",
          "type": "uint256"
        },
        {
          "name": "amount",
          "type": "uint256"
        }
      ],
      "name": "transferSnowflakeBalanceFromVia",
      "outputs": [],
      "payable": false,
      "stateMutability": "nonpayable",
      "type": "function"
    },
    {
      "constant": false,
      "inputs": [
        {
          "name": "via",
          "type": "address"
        },
        {
          "name": "to",
          "type": "address"
        },
        {
          "name": "amount",
          "type": "uint256"
        }
      ],
      "name": "withdrawSnowflakeBalanceFromVia",
      "outputs": [],
      "payable": false,
      "stateMutability": "nonpayable",
      "type": "function"
    },
    {
      "constant": false,
      "inputs": [
        {
          "name": "einTo",
          "type": "uint256"
        },
        {
          "name": "amount",
          "type": "uint256"
        }
      ],
      "name": "_transferHydroBalanceTo",
      "outputs": [],
      "payable": false,
      "stateMutability": "nonpayable",
      "type": "function"
    },
    {
      "constant": false,
      "inputs": [
        {
          "name": "to",
          "type": "address"
        },
        {
          "name": "amount",
          "type": "uint256"
        }
      ],
      "name": "_withdrawHydroBalanceTo",
      "outputs": [],
      "payable": false,
      "stateMutability": "nonpayable",
      "type": "function"
    },
    {
      "constant": false,
      "inputs": [
        {
          "name": "via",
          "type": "address"
        },
        {
          "name": "einTo",
          "type": "uint256"
        },
        {
          "name": "amount",
          "type": "uint256"
        }
      ],
      "name": "_transferHydroBalanceToVia",
      "outputs": [],
      "payable": false,
      "stateMutability": "nonpayable",
      "type": "function"
    },
    {
      "constant": false,
      "inputs": [
        {
          "name": "via",
          "type": "address"
        },
        {
          "name": "to",
          "type": "address"
        },
        {
          "name": "amount",
          "type": "uint256"
        }
      ],
      "name": "_withdrawHydroBalanceToVia",
      "outputs": [],
      "payable": false,
      "stateMutability": "nonpayable",
      "type": "function"
    }
  ],
  "bytecode": "0x60806040523480156200001157600080fd5b5060405160208062001f73833981018060405260208110156200003357600080fd5b5051604080518082018252600f81527f53616d706c65205265736f6c76657200000000000000000000000000000000006020828101919091528251606081018452602481527f5468697320697320612073616d706c6520536e6f77666c616b65207265736f6c918101919091527f7665722e000000000000000000000000000000000000000000000000000000008184015260008054600160a060020a031916331780825593519293919285926001928392600160a060020a0392909216917f8be0079c531659141344cd1fd0a4f28419497f9722a3daafe3b4186f6b6457e0908290a384516200012c906001906020880190620003e3565b50835162000142906002906020870190620003e3565b506200015783640100000000620001d0810204565b6003805491151575010000000000000000000000000000000000000000000260a860020a60ff0219931515740100000000000000000000000000000000000000000260a060020a60ff0219909316929092179290921617905550620001c99150829050640100000000620001d0810204565b5062000485565b620001e36401000000006200032e810204565b15156200025157604080517f08c379a000000000000000000000000000000000000000000000000000000000815260206004820152601b60248201527f4d7573742062652063616c6c656420627920746865206f776e65720000000000604482015290519081900360640190fd5b6200026a81640100000000620019296200034082021704565b60048054600160a060020a031916600160a060020a0383811691909117808355604080517fa759ee6f0000000000000000000000000000000000000000000000000000000081529051919092169263a759ee6f928082019260209290918290030181600087803b158015620002de57600080fd5b505af1158015620002f3573d6000803e3d6000fd5b505050506040513d60208110156200030a57600080fd5b505160058054600160a060020a031916600160a060020a0390921691909117905550565b600054600160a060020a031633145b90565b620003536401000000006200032e810204565b1515620003c157604080517f08c379a000000000000000000000000000000000000000000000000000000000815260206004820152601b60248201527f4d7573742062652063616c6c656420627920746865206f776e65720000000000604482015290519081900360640190fd5b60038054600160a060020a031916600160a060020a0392909216919091179055565b828054600181600116156101000203166002900490600052602060002090601f016020900481019282601f106200042657805160ff191683800117855562000456565b8280016001018555821562000456579182015b828111156200045657825182559160200191906001019062000439565b506200046492915062000468565b5090565b6200033d91905b808211156200046457600081556001016200046f565b611ade80620004956000396000f3fe6080604052600436106101035763ffffffff60e060020a60003504166316ff45da81146101085780632b2b4b9a1461013a5780633abdfb251461016a57806352be5059146101a9578063715018a6146101e257806371790251146101f757806376acf1b61461022057806378c9651b146102aa57806388cdab94146102e95780638da5cb5b146102fe5780638f06492d1461032f5780638f32d59b1461034457806390bfaf40146103595780639182621a14610418578063afc3489b146104d2578063c839bc0b14610508578063c979b05a1461054b578063d3a658231461057e578063eab100ad146105c1578063f2fde38b146105fa578063f9f451b81461062d575b600080fd5b34801561011457600080fd5b506101386004803603604081101561012b57600080fd5b5080359060200135610642565b005b34801561014657600080fd5b506101386004803603604081101561015d57600080fd5b508035906020013561069c565b34801561017657600080fd5b506101386004803603606081101561018d57600080fd5b50600160a060020a03813516906020810135906040013561078a565b3480156101b557600080fd5b50610138600480360360408110156101cc57600080fd5b50600160a060020a038135169060200135610894565b3480156101ee57600080fd5b506101386108ea565b34801561020357600080fd5b5061020c61098d565b604080519115158252519081900360200190f35b34801561022c57600080fd5b506102356109ae565b6040805160208082528351818301528351919283929083019185019080838360005b8381101561026f578181015183820152602001610257565b50505050905090810190601f16801561029c5780820380516001836020036101000a031916815260200191505b509250505060405180910390f35b3480156102b657600080fd5b50610138600480360360608110156102cd57600080fd5b50600160a060020a038135169060208101359060400135610a39565b3480156102f557600080fd5b50610235610aa6565b34801561030a57600080fd5b50610313610b00565b60408051600160a060020a039092168252519081900360200190f35b34801561033b57600080fd5b5061020c610b0f565b34801561035057600080fd5b5061020c610b31565b34801561036557600080fd5b5061020c6004803603606081101561037c57600080fd5b8135916020810135918101906060810160408201356401000000008111156103a357600080fd5b8201836020820111156103b557600080fd5b803590602001918460018302840111640100000000831117156103d757600080fd5b91908080601f016020809104026020016040519081016040528093929190818152602001838380828437600092019190915250929550610b42945050505050565b34801561042457600080fd5b5061020c6004803603604081101561043b57600080fd5b8135919081019060408101602082013564010000000081111561045d57600080fd5b82018360208201111561046f57600080fd5b8035906020019184600183028401116401000000008311171561049157600080fd5b91908080601f016020809104026020016040519081016040528093929190818152602001838380828437600092019190915250929550610ce8945050505050565b3480156104de57600080fd5b50610138600480360360608110156104f557600080fd5b5080359060208101359060400135610d79565b34801561051457600080fd5b506101386004803603606081101561052b57600080fd5b50600160a060020a03813581169160208101359091169060400135610e8d565b34801561055757600080fd5b506101386004803603602081101561056e57600080fd5b5035600160a060020a0316610ef5565b34801561058a57600080fd5b50610138600480360360608110156105a157600080fd5b50600160a060020a03813581169160208101359091169060400135611025565b3480156105cd57600080fd5b50610138600480360360408110156105e457600080fd5b50600160a060020a038135169060200135611113565b34801561060657600080fd5b506101386004803603602081101561061d57600080fd5b5035600160a060020a03166111ed565b34801561063957600080fd5b50610313611245565b61064a610b31565b151561068e576040805160e560020a62461bcd02815260206004820152601b6024820152600080516020611a93833981519152604482015290519081900360640190fd5b6106988282611254565b5050565b600480546005546040805160e060020a6305c62c2f028152339481019490945251600160a060020a03928316936309164f9c93909216916305c62c2f916024808301926020929190829003018186803b1580156106f857600080fd5b505afa15801561070c573d6000803e3d6000fd5b505050506040513d602081101561072257600080fd5b50516040805160e060020a63ffffffff85160281526004810192909252602482018690526044820185905251606480830192600092919082900301818387803b15801561076e57600080fd5b505af1158015610782573d6000803e3d6000fd5b505050505050565b600480546005546040805160e060020a6305c62c2f028152339481019490945251600160a060020a0392831693639cd5421093909216916305c62c2f916024808301926020929190829003018186803b1580156107e657600080fd5b505afa1580156107fa573d6000803e3d6000fd5b505050506040513d602081101561081057600080fd5b50516040805160e060020a63ffffffff85160281526004810192909252600160a060020a0387166024830152604482018690526064820185905260a06084830152600060a48301819052905160e48084019382900301818387803b15801561087757600080fd5b505af115801561088b573d6000803e3d6000fd5b50505050505050565b61089c610b31565b15156108e0576040805160e560020a62461bcd02815260206004820152601b6024820152600080516020611a93833981519152604482015290519081900360640190fd5b6106988282611445565b6108f2610b31565b1515610936576040805160e560020a62461bcd02815260206004820152601b6024820152600080516020611a93833981519152604482015290519081900360640190fd5b60008054604051600160a060020a03909116907f8be0079c531659141344cd1fd0a4f28419497f9722a3daafe3b4186f6b6457e0908390a36000805473ffffffffffffffffffffffffffffffffffffffff19169055565b60035474010000000000000000000000000000000000000000900460ff1681565b6002805460408051602060018416156101000260001901909316849004601f81018490048402820184019092528181529291830182828015610a315780601f10610a0657610100808354040283529160200191610a31565b820191906000526020600020905b815481529060010190602001808311610a1457829003601f168201915b505050505081565b610a41610b31565b1515610a85576040805160e560020a62461bcd02815260206004820152601b6024820152600080516020611a93833981519152604482015290519081900360640190fd5b610aa183838360206040519081016040528060008152506115ab565b505050565b60018054604080516020600284861615610100026000190190941693909304601f81018490048402820184019092528181529291830182828015610a315780601f10610a0657610100808354040283529160200191610a31565b600054600160a060020a031690565b6003547501000000000000000000000000000000000000000000900460ff1681565b600054600160a060020a0316331490565b600354600090600160a060020a03163314610bcd576040805160e560020a62461bcd02815260206004820152602160248201527f446964206e6f74206f726967696e6174652066726f6d20536e6f77666c616b6560448201527f2e00000000000000000000000000000000000000000000000000000000000000606482015290519081900360840190fd5b671bc16d674ec80000831015610c53576040805160e560020a62461bcd02815260206004820152602360248201527f4d7573742073657420616e20616c6c6f77616e6365206f66203e3d322048594460448201527f524f2e0000000000000000000000000000000000000000000000000000000000606482015290519081900360840190fd5b60048054604080517fedda781500000000000000000000000000000000000000000000000000000000815292830187905230602484015260028604604484015251600160a060020a039091169163edda781591606480830192600092919082900301818387803b158015610cc657600080fd5b505af1158015610cda573d6000803e3d6000fd5b506001979650505050505050565b600354600090600160a060020a03163314610d73576040805160e560020a62461bcd02815260206004820152602160248201527f446964206e6f74206f726967696e6174652066726f6d20536e6f77666c616b6560448201527f2e00000000000000000000000000000000000000000000000000000000000000606482015290519081900360840190fd5b92915050565b600554604080517f53a9698a000000000000000000000000000000000000000000000000000000008152600481018690523360248201529051600160a060020a03909216916353a9698a91604480820192602092909190829003018186803b158015610de457600080fd5b505afa158015610df8573d6000803e3d6000fd5b505050506040513d6020811015610e0e57600080fd5b50511515610e1b57600080fd5b60048054604080517f09164f9c000000000000000000000000000000000000000000000000000000008152928301869052602483018590526044830184905251600160a060020a03909116916309164f9c91606480830192600092919082900301818387803b15801561087757600080fd5b610e95610b31565b1515610ed9576040805160e560020a62461bcd02815260206004820152601b6024820152600080516020611a93833981519152604482015290519081900360640190fd5b610aa1838383602060405190810160405280600081525061182f565b610efd610b31565b1515610f41576040805160e560020a62461bcd02815260206004820152601b6024820152600080516020611a93833981519152604482015290519081900360640190fd5b610f4a81611929565b6004805473ffffffffffffffffffffffffffffffffffffffff1916600160a060020a0383811691909117808355604080517fa759ee6f0000000000000000000000000000000000000000000000000000000081529051919092169263a759ee6f928082019260209290918290030181600087803b158015610fca57600080fd5b505af1158015610fde573d6000803e3d6000fd5b505050506040513d6020811015610ff457600080fd5b50516005805473ffffffffffffffffffffffffffffffffffffffff1916600160a060020a0390921691909117905550565b600480546005546040805160e060020a6305c62c2f028152339481019490945251600160a060020a0392831693633e63dcc193909216916305c62c2f916024808301926020929190829003018186803b15801561108157600080fd5b505afa158015611095573d6000803e3d6000fd5b505050506040513d60208110156110ab57600080fd5b50516040805160e060020a63ffffffff85160281526004810192909252600160a060020a038088166024840152861660448301526064820185905260a06084830152600060a48301819052905160e48084019382900301818387803b15801561087757600080fd5b600480546005546040805160e060020a6305c62c2f028152339481019490945251600160a060020a039283169363edda781593909216916305c62c2f916024808301926020929190829003018186803b15801561116f57600080fd5b505afa158015611183573d6000803e3d6000fd5b505050506040513d602081101561119957600080fd5b50516040805160e060020a63ffffffff85160281526004810192909252600160a060020a03861660248301526044820185905251606480830192600092919082900301818387803b15801561076e57600080fd5b6111f5610b31565b1515611239576040805160e560020a62461bcd02815260206004820152601b6024820152600080516020611a93833981519152604482015290519081900360640190fd5b611242816119a4565b50565b600354600160a060020a031681565b6003546040805160e060020a6375d7e4bd0281529051600092600160a060020a0316916375d7e4bd91600480830192602092919082900301818787803b15801561129d57600080fd5b505af11580156112b1573d6000803e3d6000fd5b505050506040513d60208110156112c757600080fd5b5051600354604080516020818101889052825180830382018152828401938490527fcae9ca5100000000000000000000000000000000000000000000000000000000909352600160a060020a039384166044830181815260648401899052606060848501908152855160a486015285519798509588169663cae9ca519692958a95909492939260c4909101919085019080838360005b8381101561137557818101518382015260200161135d565b50505050905090810190601f1680156113a25780820380516001836020036101000a031916815260200191505b50945050505050602060405180830381600087803b1580156113c357600080fd5b505af11580156113d7573d6000803e3d6000fd5b505050506040513d60208110156113ed57600080fd5b50511515610aa1576040805160e560020a62461bcd02815260206004820152601c60248201527f556e7375636365737366756c20617070726f7665416e6443616c6c2e00000000604482015290519081900360640190fd5b6003546040805160e060020a6375d7e4bd0281529051600092600160a060020a0316916375d7e4bd91600480830192602092919082900301818787803b15801561148e57600080fd5b505af11580156114a2573d6000803e3d6000fd5b505050506040513d60208110156114b857600080fd5b5051604080517fa9059cbb000000000000000000000000000000000000000000000000000000008152600160a060020a0386811660048301526024820186905291519293509083169163a9059cbb916044808201926020929091908290030181600087803b15801561152957600080fd5b505af115801561153d573d6000803e3d6000fd5b505050506040513d602081101561155357600080fd5b50511515610aa1576040805160e560020a62461bcd02815260206004820152601660248201527f556e7375636365737366756c207472616e736665722e00000000000000000000604482015290519081900360640190fd5b6003546040805160e060020a6375d7e4bd0281529051600092600160a060020a0316916375d7e4bd91600480830192602092919082900301818787803b1580156115f457600080fd5b505af1158015611608573d6000803e3d6000fd5b505050506040513d602081101561161e57600080fd5b5051600354604080516001602082810182815230948401859052600160a060020a038c81166060860152608085018c905260a08086019081528a5160c08701528a51989950818a169863cae9ca5198909216968c9690948f948f948e949193919260e09092019185019080838360005b838110156116a657818101518382015260200161168e565b50505050905090810190601f1680156116d35780820380516001836020036101000a031916815260200191505b5096505050505050506040516020818303038152906040526040518463ffffffff1660e060020a0281526004018084600160a060020a0316600160a060020a0316815260200183815260200180602001828103825283818151815260200191508051906020019080838360005b83811015611758578181015183820152602001611740565b50505050905090810190601f1680156117855780820380516001836020036101000a031916815260200191505b50945050505050602060405180830381600087803b1580156117a657600080fd5b505af11580156117ba573d6000803e3d6000fd5b505050506040513d60208110156117d057600080fd5b50511515611828576040805160e560020a62461bcd02815260206004820152601c60248201527f556e7375636365737366756c20617070726f7665416e6443616c6c2e00000000604482015290519081900360640190fd5b5050505050565b6003546040805160e060020a6375d7e4bd0281529051600092600160a060020a0316916375d7e4bd91600480830192602092919082900301818787803b15801561187857600080fd5b505af115801561188c573d6000803e3d6000fd5b505050506040513d60208110156118a257600080fd5b5051600354604080516000602082810182815230948401859052600160a060020a038c811660608601528b8116608086015260a08086019081528a5160c08701528a51989950818a169863cae9ca5198909216968c9690948f948f948e949193919260e0909201918501908083838c838110156116a657818101518382015260200161168e565b611931610b31565b1515611975576040805160e560020a62461bcd02815260206004820152601b6024820152600080516020611a93833981519152604482015290519081900360640190fd5b6003805473ffffffffffffffffffffffffffffffffffffffff1916600160a060020a0392909216919091179055565b600160a060020a0381161515611a2a576040805160e560020a62461bcd02815260206004820152602260248201527f6e6577206f776e65722061646472657373206d757374206e6f74206265207a6560448201527f726f000000000000000000000000000000000000000000000000000000000000606482015290519081900360840190fd5b60008054604051600160a060020a03808516939216917f8be0079c531659141344cd1fd0a4f28419497f9722a3daafe3b4186f6b6457e091a36000805473ffffffffffffffffffffffffffffffffffffffff1916600160a060020a039290921691909117905556fe4d7573742062652063616c6c656420627920746865206f776e65720000000000a165627a7a7230582097409b598a29dd7973c18675d2a78d3af64a0fdda44b59bd87d82c979f752c6a0029",
  "source": "pragma solidity ^0.5.0;\r\n\r\nimport \"../SnowflakeResolver.sol\";\r\nimport \"../interfaces/IdentityRegistryInterface.sol\";\r\nimport \"../interfaces/SnowflakeInterface.sol\";\r\n\r\n\r\ncontract Resolver is SnowflakeResolver {\r\n    SnowflakeInterface private snowflake;\r\n    IdentityRegistryInterface private identityRegistry;\r\n\r\n    constructor (address snowflakeAddress)\r\n        SnowflakeResolver(\"Sample Resolver\", \"This is a sample Snowflake resolver.\", snowflakeAddress, true, true)\r\n        public\r\n    {\r\n        setSnowflakeAddress(snowflakeAddress);\r\n    }\r\n\r\n    // set the snowflake address, and hydro token + identity registry contract wrappers\r\n    function setSnowflakeAddress(address snowflakeAddress) public onlyOwner() {\r\n        super.setSnowflakeAddress(snowflakeAddress);\r\n        snowflake = SnowflakeInterface(snowflakeAddress);\r\n        identityRegistry = IdentityRegistryInterface(snowflake.identityRegistryAddress());\r\n    }\r\n\r\n    // implement signup function\r\n    function onAddition(uint ein, uint allowance, bytes memory) public senderIsSnowflake() returns (bool) {\r\n        require(allowance >= 2000000000000000000, \"Must set an allowance of >=2 HYDRO.\");\r\n        snowflake.withdrawSnowflakeBalanceFrom(ein, address(this), allowance / 2);\r\n        return true;\r\n    }\r\n\r\n    // implement removal function\r\n    function onRemoval(uint, bytes memory) public senderIsSnowflake() returns (bool) {}\r\n\r\n    // example function to test allowAndCall\r\n    function transferSnowflakeBalanceFromAllowAndCall(uint einFrom, uint einTo, uint amount) public {\r\n        require(identityRegistry.isProviderFor(einFrom, msg.sender));\r\n        snowflake.transferSnowflakeBalanceFrom(einFrom, einTo, amount);\r\n    }\r\n\r\n    // example functions to test *From token functions\r\n    function transferSnowflakeBalanceFrom(uint einTo, uint amount) public {\r\n        snowflake.transferSnowflakeBalanceFrom(identityRegistry.getEIN(msg.sender), einTo, amount);\r\n    }\r\n\r\n    function withdrawSnowflakeBalanceFrom(address to, uint amount) public {\r\n        snowflake.withdrawSnowflakeBalanceFrom(identityRegistry.getEIN(msg.sender), to, amount);\r\n    }\r\n\r\n    function transferSnowflakeBalanceFromVia(address via, uint einTo, uint amount) public {\r\n        snowflake.transferSnowflakeBalanceFromVia(identityRegistry.getEIN(msg.sender), via, einTo, amount, hex\"\");\r\n    }\r\n\r\n    function withdrawSnowflakeBalanceFromVia(address via, address to, uint amount) public {\r\n        snowflake.withdrawSnowflakeBalanceFromVia(identityRegistry.getEIN(msg.sender), via, to, amount, hex\"\");\r\n    }\r\n\r\n    // example functions to test *To token functions\r\n    function _transferHydroBalanceTo(uint einTo, uint amount) public onlyOwner {\r\n        transferHydroBalanceTo(einTo, amount);\r\n    }\r\n\r\n    function _withdrawHydroBalanceTo(address to, uint amount) public onlyOwner {\r\n        withdrawHydroBalanceTo(to, amount);\r\n    }\r\n\r\n    function _transferHydroBalanceToVia(address via, uint einTo, uint amount) public onlyOwner {\r\n        transferHydroBalanceToVia(via, einTo, amount, hex\"\");\r\n    }\r\n\r\n    function _withdrawHydroBalanceToVia(address via, address to, uint amount) public onlyOwner {\r\n        withdrawHydroBalanceToVia(via, to, amount, hex\"\");\r\n    }\r\n}\r\n",
  "sourcePath": "C:/Users/HP/Desktop/programming-resources/HydroBlockchain/vaultWallet/smart-contracts/snowflake/contracts/samples/Resolver.sol",
  "compiler": {
    "name": "solc",
    "version": "0.5.0+commit.1d4f565a.Emscripten.clang"
  },
  "schemaVersion": "3.0.10",
  "updatedAt": "2020-08-17T10:44:17.362Z",
  "devdoc": {
    "methods": {
      "isOwner()": {
        "return": "true if `msg.sender` is the owner of the contract.\r"
      },
      "owner()": {
        "return": "the address of the owner.\r"
      },
      "renounceOwnership()": {
        "details": "Allows the current owner to relinquish control of the contract.\r"
      },
      "transferOwnership(address)": {
        "details": "Allows the current owner to transfer control of the contract to a newOwner.\r",
        "params": {
          "newOwner": "The address to transfer ownership to.\r"
        }
      }
    }
  },
  "userdoc": {
    "methods": {
      "renounceOwnership()": {
        "notice": "Renouncing to ownership will leave the contract without an owner.\r It will not be possible to call the functions with the `onlyOwner`\r modifier anymore.\r"
      }
    }
  }
}