{
  "contractName": "UniswapVia",
  "abi": [
    {
      "constant": true,
      "inputs": [],
      "name": "uniswapHydroExchangeAddress",
      "outputs": [
        {
          "name": "",
          "type": "address"
        }
      ],
      "payable": false,
      "stateMutability": "view",
      "type": "function"
    },
    {
      "constant": false,
      "inputs": [],
      "name": "renounceOwnership",
      "outputs": [],
      "payable": false,
      "stateMutability": "nonpayable",
      "type": "function"
    },
    {
      "constant": true,
      "inputs": [],
      "name": "owner",
      "outputs": [
        {
          "name": "",
          "type": "address"
        }
      ],
      "payable": false,
      "stateMutability": "view",
      "type": "function"
    },
    {
      "constant": true,
      "inputs": [],
      "name": "isOwner",
      "outputs": [
        {
          "name": "",
          "type": "bool"
        }
      ],
      "payable": false,
      "stateMutability": "view",
      "type": "function"
    },
    {
      "constant": false,
      "inputs": [
        {
          "name": "_snowflakeAddress",
          "type": "address"
        }
      ],
      "name": "setSnowflakeAddress",
      "outputs": [],
      "payable": false,
      "stateMutability": "nonpayable",
      "type": "function"
    },
    {
      "constant": false,
      "inputs": [
        {
          "name": "newOwner",
          "type": "address"
        }
      ],
      "name": "transferOwnership",
      "outputs": [],
      "payable": false,
      "stateMutability": "nonpayable",
      "type": "function"
    },
    {
      "constant": true,
      "inputs": [],
      "name": "snowflakeAddress",
      "outputs": [
        {
          "name": "",
          "type": "address"
        }
      ],
      "payable": false,
      "stateMutability": "view",
      "type": "function"
    },
    {
      "inputs": [
        {
          "name": "_snowflakeAddress",
          "type": "address"
        },
        {
          "name": "uniswapFactoryAddress",
          "type": "address"
        }
      ],
      "payable": false,
      "stateMutability": "nonpayable",
      "type": "constructor"
    },
    {
      "anonymous": false,
      "inputs": [
        {
          "indexed": true,
          "name": "previousOwner",
          "type": "address"
        },
        {
          "indexed": true,
          "name": "newOwner",
          "type": "address"
        }
      ],
      "name": "OwnershipTransferred",
      "type": "event"
    },
    {
      "constant": false,
      "inputs": [
        {
          "name": "uniswapFactoryAddress",
          "type": "address"
        }
      ],
      "name": "setUniswapHydroExchangeAddress",
      "outputs": [],
      "payable": false,
      "stateMutability": "nonpayable",
      "type": "function"
    },
    {
      "constant": false,
      "inputs": [
        {
          "name": "",
          "type": "address"
        },
        {
          "name": "",
          "type": "uint256"
        },
        {
          "name": "",
          "type": "uint256"
        },
        {
          "name": "",
          "type": "uint256"
        },
        {
          "name": "",
          "type": "bytes"
        }
      ],
      "name": "snowflakeCall",
      "outputs": [],
      "payable": false,
      "stateMutability": "nonpayable",
      "type": "function"
    },
    {
      "constant": false,
      "inputs": [
        {
          "name": "",
          "type": "address"
        },
        {
          "name": "",
          "type": "uint256"
        },
        {
          "name": "to",
          "type": "address"
        },
        {
          "name": "amount",
          "type": "uint256"
        },
        {
          "name": "snowflakeCallBytes",
          "type": "bytes"
        }
      ],
      "name": "snowflakeCall",
      "outputs": [],
      "payable": false,
      "stateMutability": "nonpayable",
      "type": "function"
    },
    {
      "constant": false,
      "inputs": [
        {
          "name": "",
          "type": "address"
        },
        {
          "name": "",
          "type": "uint256"
        },
        {
          "name": "",
          "type": "uint256"
        },
        {
          "name": "",
          "type": "bytes"
        }
      ],
      "name": "snowflakeCall",
      "outputs": [],
      "payable": false,
      "stateMutability": "nonpayable",
      "type": "function"
    },
    {
      "constant": false,
      "inputs": [
        {
          "name": "",
          "type": "address"
        },
        {
          "name": "to",
          "type": "address"
        },
        {
          "name": "amount",
          "type": "uint256"
        },
        {
          "name": "snowflakeCallBytes",
          "type": "bytes"
        }
      ],
      "name": "snowflakeCall",
      "outputs": [],
      "payable": false,
      "stateMutability": "nonpayable",
      "type": "function"
    }
  ],
  "bytecode": "0x608060405234801561001057600080fd5b506040516040806200109f8339810180604052604081101561003157600080fd5b50805160209091015160008054600160a060020a03191633178082556040518492600160a060020a039290921691907f8be0079c531659141344cd1fd0a4f28419497f9722a3daafe3b4186f6b6457e0908290a3610097816401000000006100b1810204565b506100aa81640100000000610151810204565b505061033f565b6100c264010000000061032e810204565b151561012f57604080517f08c379a000000000000000000000000000000000000000000000000000000000815260206004820152601b60248201527f4d7573742062652063616c6c656420627920746865206f776e65720000000000604482015290519081900360640190fd5b60018054600160a060020a031916600160a060020a0392909216919091179055565b61016264010000000061032e810204565b15156101cf57604080517f08c379a000000000000000000000000000000000000000000000000000000000815260206004820152601b60248201527f4d7573742062652063616c6c656420627920746865206f776e65720000000000604482015290519081900360640190fd5b80600160a060020a03166306f2bf62600160009054906101000a9004600160a060020a0316600160a060020a03166375d7e4bd6040518163ffffffff167c0100000000000000000000000000000000000000000000000000000000028152600401602060405180830381600087803b15801561024a57600080fd5b505af115801561025e573d6000803e3d6000fd5b505050506040513d602081101561027457600080fd5b5051604080517c010000000000000000000000000000000000000000000000000000000063ffffffff8516028152600160a060020a039092166004830152516024808301926020929190829003018186803b1580156102d257600080fd5b505afa1580156102e6573d6000803e3d6000fd5b505050506040513d60208110156102fc57600080fd5b505160028054600160a060020a0319908116600160a060020a0393841617918290556003805492909316911617905550565b600054600160a060020a0316331490565b610d50806200034f6000396000f3fe6080604052600436106100a05763ffffffff60e060020a6000350416631c75edfe81146100a55780633aaaa8a01461017b5780633c72e439146102545780633df932ce146102ae578063715018a6146102df5780638da5cb5b146102f45780638f32d59b14610309578063b952d86f14610332578063c979b05a14610365578063e5a1309214610398578063f2fde38b1461046b578063f9f451b81461049e575b600080fd5b3480156100b157600080fd5b50610179600480360360a08110156100c857600080fd5b600160a060020a038235169160208101359160408201359160608101359181019060a08101608082013564010000000081111561010457600080fd5b82018360208201111561011657600080fd5b8035906020019184600183028401116401000000008311171561013857600080fd5b91908080601f0160208091040260200160405190810160405280939291908181526020018383808284376000920191909152509295506104b3945050505050565b005b34801561018757600080fd5b50610179600480360360a081101561019e57600080fd5b600160a060020a0382358116926020810135926040820135909216916060820135919081019060a0810160808201356401000000008111156101df57600080fd5b8201836020820111156101f157600080fd5b8035906020019184600183028401116401000000008311171561021357600080fd5b91908080601f01602080910402602001604051908101604052809392919081815260200183838082843760009201919091525092955061058b945050505050565b34801561026057600080fd5b506101796004803603608081101561027757600080fd5b600160a060020a03823516916020810135916040820135919081019060808101606082013564010000000081111561010457600080fd5b3480156102ba57600080fd5b506102c3610626565b60408051600160a060020a039092168252519081900360200190f35b3480156102eb57600080fd5b50610179610635565b34801561030057600080fd5b506102c36106d8565b34801561031557600080fd5b5061031e6106e7565b604080519115158252519081900360200190f35b34801561033e57600080fd5b506101796004803603602081101561035557600080fd5b5035600160a060020a03166106f8565b34801561037157600080fd5b506101796004803603602081101561038857600080fd5b5035600160a060020a031661087e565b3480156103a457600080fd5b50610179600480360360808110156103bb57600080fd5b600160a060020a038235811692602081013590911691604082013591908101906080810160608201356401000000008111156103f657600080fd5b82018360208201111561040857600080fd5b8035906020019184600183028401116401000000008311171561042a57600080fd5b91908080601f0160208091040260200160405190810160405280939291908181526020018383808284376000920191909152509295506108f9945050505050565b34801561047757600080fd5b506101796004803603602081101561048e57600080fd5b5035600160a060020a0316610993565b3480156104aa57600080fd5b506102c36109eb565b600154600160a060020a0316331461053b576040805160e560020a62461bcd02815260206004820152602160248201527f446964206e6f74206f726967696e6174652066726f6d20536e6f77666c616b6560448201527f2e00000000000000000000000000000000000000000000000000000000000000606482015290519081900360840190fd5b6040805160e560020a62461bcd02815260206004820152601060248201527f4e6f7420496d706c656d656e7465642e00000000000000000000000000000000604482015290519081900360640190fd5b600154600160a060020a03163314610613576040805160e560020a62461bcd02815260206004820152602160248201527f446964206e6f74206f726967696e6174652066726f6d20536e6f77666c616b6560448201527f2e00000000000000000000000000000000000000000000000000000000000000606482015290519081900360840190fd5b61061e8383836109fa565b505050505050565b600254600160a060020a031681565b61063d6106e7565b1515610681576040805160e560020a62461bcd02815260206004820152601b6024820152600080516020610d05833981519152604482015290519081900360640190fd5b60008054604051600160a060020a03909116907f8be0079c531659141344cd1fd0a4f28419497f9722a3daafe3b4186f6b6457e0908390a36000805473ffffffffffffffffffffffffffffffffffffffff19169055565b600054600160a060020a031690565b600054600160a060020a0316331490565b6107006106e7565b1515610744576040805160e560020a62461bcd02815260206004820152601b6024820152600080516020610d05833981519152604482015290519081900360640190fd5b80600160a060020a03166306f2bf62600160009054906101000a9004600160a060020a0316600160a060020a03166375d7e4bd6040518163ffffffff1660e060020a028152600401602060405180830381600087803b1580156107a657600080fd5b505af11580156107ba573d6000803e3d6000fd5b505050506040513d60208110156107d057600080fd5b50516040805160e060020a63ffffffff8516028152600160a060020a039092166004830152516024808301926020929190829003018186803b15801561081557600080fd5b505afa158015610829573d6000803e3d6000fd5b505050506040513d602081101561083f57600080fd5b50516002805473ffffffffffffffffffffffffffffffffffffffff19908116600160a060020a0393841617918290556003805492909316911617905550565b6108866106e7565b15156108ca576040805160e560020a62461bcd02815260206004820152601b6024820152600080516020610d05833981519152604482015290519081900360640190fd5b6001805473ffffffffffffffffffffffffffffffffffffffff1916600160a060020a0392909216919091179055565b600154600160a060020a03163314610981576040805160e560020a62461bcd02815260206004820152602160248201527f446964206e6f74206f726967696e6174652066726f6d20536e6f77666c616b6560448201527f2e00000000000000000000000000000000000000000000000000000000000000606482015290519081900360840190fd5b61098c8383836109fa565b5050505050565b61099b6106e7565b15156109df576040805160e560020a62461bcd02815260206004820152601b6024820152600080516020610d05833981519152604482015290519081900360640190fd5b6109e881610c16565b50565b600154600160a060020a031681565b6000806000806000858060200190516080811015610a1757600080fd5b50805160208083015160408085015160609095015160015482517f75d7e4bd0000000000000000000000000000000000000000000000000000000081529251959a50929850949650939450600160a060020a0316926375d7e4bd92600480830193928290030181600087803b158015610a8f57600080fd5b505af1158015610aa3573d6000803e3d6000fd5b505050506040513d6020811015610ab957600080fd5b5051600254604080517f095ea7b3000000000000000000000000000000000000000000000000000000008152600160a060020a039283166004820152602481018b90529051919092169163095ea7b39160448083019260209291908290030181600087803b158015610b2a57600080fd5b505af1158015610b3e573d6000803e3d6000fd5b505050506040513d6020811015610b5457600080fd5b5050600354604080517fb040d545000000000000000000000000000000000000000000000000000000008152600481018a9052602481018690526044810185905260648101849052600160a060020a0387811660848301529151600093929092169163b040d5459160a48082019260209290919082900301818787803b158015610bdd57600080fd5b505af1158015610bf1573d6000803e3d6000fd5b505050506040513d6020811015610c0757600080fd5b50519998505050505050505050565b600160a060020a0381161515610c9c576040805160e560020a62461bcd02815260206004820152602260248201527f6e6577206f776e65722061646472657373206d757374206e6f74206265207a6560448201527f726f000000000000000000000000000000000000000000000000000000000000606482015290519081900360840190fd5b60008054604051600160a060020a03808516939216917f8be0079c531659141344cd1fd0a4f28419497f9722a3daafe3b4186f6b6457e091a36000805473ffffffffffffffffffffffffffffffffffffffff1916600160a060020a039290921691909117905556fe4d7573742062652063616c6c656420627920746865206f776e65720000000000a165627a7a723058202a28bace9c5a28ba1742692af93d7445270cadf323e9841f7c605d4da8ffbc7c0029",
  "source": "pragma solidity ^0.5.0;\r\n\r\nimport \"./SnowflakeVia.sol\";\r\nimport \"../../interfaces/HydroInterface.sol\";\r\nimport \"../../interfaces/SnowflakeInterface.sol\";\r\n\r\ncontract UniswapFactory {\r\n    function getExchange(address token) external view returns (address);\r\n}\r\n\r\ncontract UniswapExchange {\r\n    function tokenToTokenSwapOutput(\r\n        uint256 tokens_bought, \r\n        uint256 max_tokens_sold, \r\n        uint256 max_eth_sold, \r\n        uint256 deadline, \r\n        address token_addr) \r\n        external \r\n        returns (uint256  tokens_sold);\r\n}\r\n\r\ncontract UniswapVia is SnowflakeVia {\r\n    address public uniswapHydroExchangeAddress;\r\n    UniswapExchange private uniswapHydroExchange;\r\n\r\n    constructor (address _snowflakeAddress, address uniswapFactoryAddress) SnowflakeVia(_snowflakeAddress) public {\r\n        setUniswapHydroExchangeAddress(uniswapFactoryAddress);\r\n    }\r\n\r\n    function setUniswapHydroExchangeAddress(address uniswapFactoryAddress) public onlyOwner() {\r\n        uniswapHydroExchangeAddress = UniswapFactory(uniswapFactoryAddress)\r\n            .getExchange(SnowflakeInterface(snowflakeAddress).hydroTokenAddress());\r\n        uniswapHydroExchange = UniswapExchange(uniswapHydroExchangeAddress);\r\n    }\r\n\r\n    // end recipient is an EIN\r\n    function snowflakeCall(\r\n        address /* resolver */,\r\n        uint /* einFrom */,\r\n        uint /* einTo */,\r\n        uint /* amount */,\r\n        bytes memory /* snowflakeCallBytes */\r\n    ) public senderIsSnowflake() {\r\n        revert(\"Not Implemented.\");\r\n    }\r\n\r\n    // end recipient is an EIN, no from field\r\n    function snowflakeCall(\r\n        address /* resolver */,\r\n        uint /* einTo */,\r\n        uint /* amount */,\r\n        bytes memory /* snowflakeCallBytes */\r\n    ) public senderIsSnowflake() {\r\n        revert(\"Not Implemented.\");\r\n    }\r\n\r\n    // end recipient is an address\r\n    function snowflakeCall(\r\n        address /* resolver */, uint /* einFrom */, address payable to, uint amount, bytes memory snowflakeCallBytes\r\n    ) public senderIsSnowflake() {\r\n        convertFromHYDRO(to, amount, snowflakeCallBytes);\r\n    }\r\n\r\n    // end recipient is an address, no from field\r\n    function snowflakeCall(\r\n        address /* resolver */, address payable to, uint amount, bytes memory snowflakeCallBytes\r\n    ) public senderIsSnowflake() {\r\n        convertFromHYDRO(to, amount, snowflakeCallBytes);\r\n    }\r\n\r\n    function convertFromHYDRO(address payable to, uint amount, bytes memory snowflakeCallBytes)\r\n        private returns (uint tokensBought)\r\n    {\r\n        (address tokenAddress, uint minTokensBought, uint minEthBought, uint deadline)= abi.decode(\r\n            snowflakeCallBytes, (address, uint, uint, uint)\r\n        );\r\n\r\n        HydroInterface(SnowflakeInterface(snowflakeAddress).hydroTokenAddress()).approve(uniswapHydroExchangeAddress, amount);\r\n\r\n        uint _tokensBought = uniswapHydroExchange.tokenToTokenSwapOutput(\r\n            amount, minTokensBought, minEthBought, deadline, tokenAddress\r\n        );\r\n\r\n        return _tokensBought;\r\n    }\r\n}",
  "sourcePath": "C:/Users/HP/Desktop/programming-resources/HydroBlockchain/vaultWallet/smart-contracts/snowflake/contracts/resolvers/ProtectedWallet/UniswapVia.sol",
  "compiler": {
    "name": "solc",
    "version": "0.5.0+commit.1d4f565a.Emscripten.clang"
  },
  "schemaVersion": "3.0.10",
  "updatedAt": "2020-08-17T11:19:56.687Z",
  "devdoc": {
    "methods": {
      "isOwner()": {
        "return": "true if `msg.sender` is the owner of the contract.\r"
      },
      "owner()": {
        "return": "the address of the owner.\r"
      },
      "renounceOwnership()": {
        "details": "Allows the current owner to relinquish control of the contract.\r"
      },
      "transferOwnership(address)": {
        "details": "Allows the current owner to transfer control of the contract to a newOwner.\r",
        "params": {
          "newOwner": "The address to transfer ownership to.\r"
        }
      }
    }
  },
  "userdoc": {
    "methods": {
      "renounceOwnership()": {
        "notice": "Renouncing to ownership will leave the contract without an owner.\r It will not be possible to call the functions with the `onlyOwner`\r modifier anymore.\r"
      }
    }
  }
}