{
  "contractName": "Via",
  "abi": [
    {
      "constant": true,
      "inputs": [
        {
          "name": "",
          "type": "uint256"
        }
      ],
      "name": "balances",
      "outputs": [
        {
          "name": "",
          "type": "uint256"
        }
      ],
      "payable": false,
      "stateMutability": "view",
      "type": "function"
    },
    {
      "constant": false,
      "inputs": [],
      "name": "renounceOwnership",
      "outputs": [],
      "payable": false,
      "stateMutability": "nonpayable",
      "type": "function"
    },
    {
      "constant": true,
      "inputs": [],
      "name": "owner",
      "outputs": [
        {
          "name": "",
          "type": "address"
        }
      ],
      "payable": false,
      "stateMutability": "view",
      "type": "function"
    },
    {
      "constant": true,
      "inputs": [],
      "name": "isOwner",
      "outputs": [
        {
          "name": "",
          "type": "bool"
        }
      ],
      "payable": false,
      "stateMutability": "view",
      "type": "function"
    },
    {
      "constant": false,
      "inputs": [
        {
          "name": "newOwner",
          "type": "address"
        }
      ],
      "name": "transferOwnership",
      "outputs": [],
      "payable": false,
      "stateMutability": "nonpayable",
      "type": "function"
    },
    {
      "constant": true,
      "inputs": [],
      "name": "snowflakeAddress",
      "outputs": [
        {
          "name": "",
          "type": "address"
        }
      ],
      "payable": false,
      "stateMutability": "view",
      "type": "function"
    },
    {
      "inputs": [
        {
          "name": "_snowflakeAddress",
          "type": "address"
        }
      ],
      "payable": false,
      "stateMutability": "nonpayable",
      "type": "constructor"
    },
    {
      "anonymous": false,
      "inputs": [
        {
          "indexed": true,
          "name": "previousOwner",
          "type": "address"
        },
        {
          "indexed": true,
          "name": "newOwner",
          "type": "address"
        }
      ],
      "name": "OwnershipTransferred",
      "type": "event"
    },
    {
      "constant": false,
      "inputs": [
        {
          "name": "_snowflakeAddress",
          "type": "address"
        }
      ],
      "name": "setSnowflakeAddress",
      "outputs": [],
      "payable": false,
      "stateMutability": "nonpayable",
      "type": "function"
    },
    {
      "constant": false,
      "inputs": [],
      "name": "fund",
      "outputs": [],
      "payable": true,
      "stateMutability": "payable",
      "type": "function"
    },
    {
      "constant": true,
      "inputs": [
        {
          "name": "amount",
          "type": "uint256"
        }
      ],
      "name": "convertHydroToEth",
      "outputs": [
        {
          "name": "",
          "type": "uint256"
        }
      ],
      "payable": false,
      "stateMutability": "view",
      "type": "function"
    },
    {
      "constant": false,
      "inputs": [
        {
          "name": "",
          "type": "address"
        },
        {
          "name": "",
          "type": "uint256"
        },
        {
          "name": "einTo",
          "type": "uint256"
        },
        {
          "name": "amount",
          "type": "uint256"
        },
        {
          "name": "",
          "type": "bytes"
        }
      ],
      "name": "snowflakeCall",
      "outputs": [],
      "payable": false,
      "stateMutability": "nonpayable",
      "type": "function"
    },
    {
      "constant": false,
      "inputs": [
        {
          "name": "",
          "type": "address"
        },
        {
          "name": "",
          "type": "uint256"
        },
        {
          "name": "to",
          "type": "address"
        },
        {
          "name": "amount",
          "type": "uint256"
        },
        {
          "name": "",
          "type": "bytes"
        }
      ],
      "name": "snowflakeCall",
      "outputs": [],
      "payable": false,
      "stateMutability": "nonpayable",
      "type": "function"
    },
    {
      "constant": false,
      "inputs": [
        {
          "name": "",
          "type": "address"
        },
        {
          "name": "einTo",
          "type": "uint256"
        },
        {
          "name": "amount",
          "type": "uint256"
        },
        {
          "name": "",
          "type": "bytes"
        }
      ],
      "name": "snowflakeCall",
      "outputs": [],
      "payable": false,
      "stateMutability": "nonpayable",
      "type": "function"
    },
    {
      "constant": false,
      "inputs": [
        {
          "name": "",
          "type": "address"
        },
        {
          "name": "to",
          "type": "address"
        },
        {
          "name": "amount",
          "type": "uint256"
        },
        {
          "name": "",
          "type": "bytes"
        }
      ],
      "name": "snowflakeCall",
      "outputs": [],
      "payable": false,
      "stateMutability": "nonpayable",
      "type": "function"
    },
    {
      "constant": false,
      "inputs": [
        {
          "name": "to",
          "type": "address"
        }
      ],
      "name": "withdrawTo",
      "outputs": [],
      "payable": false,
      "stateMutability": "nonpayable",
      "type": "function"
    },
    {
      "constant": false,
      "inputs": [
        {
          "name": "to",
          "type": "address"
        }
      ],
      "name": "withdrawHydroTo",
      "outputs": [],
      "payable": false,
      "stateMutability": "nonpayable",
      "type": "function"
    }
  ],
  "bytecode": "0x6080604052600a6005553480156200001657600080fd5b5060405160208062001267833981018060405260208110156200003857600080fd5b505160008054600160a060020a03191633178082556040518392600160a060020a039290921691907f8be0079c531659141344cd1fd0a4f28419497f9722a3daafe3b4186f6b6457e0908290a36200009981640100000000620000b5810204565b50620000ae81640100000000620000b5810204565b50620002cb565b620000c864010000000062000217810204565b15156200013657604080517f08c379a000000000000000000000000000000000000000000000000000000000815260206004820152601b60248201527f4d7573742062652063616c6c656420627920746865206f776e65720000000000604482015290519081900360640190fd5b6200014f8164010000000062000db76200022882021704565b60028054600160a060020a031916600160a060020a038381169190911791829055604080517f75d7e4bd000000000000000000000000000000000000000000000000000000008152905192909116916375d7e4bd916004808201926020929091908290030181600087803b158015620001c757600080fd5b505af1158015620001dc573d6000803e3d6000fd5b505050506040513d6020811015620001f357600080fd5b505160038054600160a060020a031916600160a060020a0390921691909117905550565b600054600160a060020a0316331490565b6200023b64010000000062000217810204565b1515620002a957604080517f08c379a000000000000000000000000000000000000000000000000000000000815260206004820152601b60248201527f4d7573742062652063616c6c656420627920746865206f776e65720000000000604482015290519081900360640190fd5b60018054600160a060020a031916600160a060020a0392909216919091179055565b610f8c80620002db6000396000f3fe6080604052600436106100da5763ffffffff7c0100000000000000000000000000000000000000000000000000000000600035041663101df4ff81146100df57806317451a511461011b5780631c75edfe146101505780633aaaa8a0146102245780633c72e439146102fd5780634903b0d1146103cc578063715018a6146103f657806372b0d90c1461040b5780638da5cb5b1461043e5780638f32d59b1461046f578063b60d428814610498578063c979b05a146104a0578063e5a13092146104d3578063f2fde38b146105a6578063f9f451b8146105d9575b600080fd5b3480156100eb57600080fd5b506101096004803603602081101561010257600080fd5b50356105ee565b60408051918252519081900360200190f35b34801561012757600080fd5b5061014e6004803603602081101561013e57600080fd5b5035600160a060020a0316610604565b005b34801561015c57600080fd5b5061014e600480360360a081101561017357600080fd5b600160a060020a038235169160208101359160408201359160608101359181019060a0810160808201356401000000008111156101af57600080fd5b8201836020820111156101c157600080fd5b803590602001918460018302840111640100000000831117156101e357600080fd5b91908080601f0160208091040260200160405190810160405280939291908181526020018383808284376000920191909152509295506107d4945050505050565b34801561023057600080fd5b5061014e600480360360a081101561024757600080fd5b600160a060020a0382358116926020810135926040820135909216916060820135919081019060a08101608082013564010000000081111561028857600080fd5b82018360208201111561029a57600080fd5b803590602001918460018302840111640100000000831117156102bc57600080fd5b91908080601f016020809104026020016040519081016040528093929190818152602001838380828437600092019190915250929550610842945050505050565b34801561030957600080fd5b5061014e6004803603608081101561032057600080fd5b600160a060020a03823516916020810135916040820135919081019060808101606082013564010000000081111561035757600080fd5b82018360208201111561036957600080fd5b8035906020019184600183028401116401000000008311171561038b57600080fd5b91908080601f0160208091040260200160405190810160405280939291908181526020018383808284376000920191909152509295506108a9945050505050565b3480156103d857600080fd5b50610109600480360360208110156103ef57600080fd5b5035610916565b34801561040257600080fd5b5061014e610928565b34801561041757600080fd5b5061014e6004803603602081101561042e57600080fd5b5035600160a060020a03166109cb565b34801561044a57600080fd5b50610453610b35565b60408051600160a060020a039092168252519081900360200190f35b34801561047b57600080fd5b50610484610b44565b604080519115158252519081900360200190f35b61014e610b55565b3480156104ac57600080fd5b5061014e600480360360208110156104c357600080fd5b5035600160a060020a0316610b57565b3480156104df57600080fd5b5061014e600480360360808110156104f657600080fd5b600160a060020a0382358116926020810135909116916040820135919081019060808101606082013564010000000081111561053157600080fd5b82018360208201111561054357600080fd5b8035906020019184600183028401116401000000008311171561056557600080fd5b91908080601f016020809104026020016040519081016040528093929190818152602001838380828437600092019190915250929550610c8b945050505050565b3480156105b257600080fd5b5061014e600480360360208110156105c957600080fd5b5035600160a060020a0316610cf2565b3480156105e557600080fd5b50610453610d47565b6000600554828115156105fd57fe5b0492915050565b61060c610b44565b1515610650576040805160e560020a62461bcd02815260206004820152601b6024820152600080516020610f41833981519152604482015290519081900360640190fd5b600354604080517f70a082310000000000000000000000000000000000000000000000000000000081523060048201529051600160a060020a039092169163a9059cbb91849184916370a08231916024808301926020929190829003018186803b1580156106bd57600080fd5b505afa1580156106d1573d6000803e3d6000fd5b505050506040513d60208110156106e757600080fd5b5051604080517c010000000000000000000000000000000000000000000000000000000063ffffffff8616028152600160a060020a03909316600484015260248301919091525160448083019260209291908290030181600087803b15801561074f57600080fd5b505af1158015610763573d6000803e3d6000fd5b505050506040513d602081101561077957600080fd5b505115156107d1576040805160e560020a62461bcd02815260206004820152601960248201527f5472616e736665722077617320756e7375636365737366756c00000000000000604482015290519081900360640190fd5b50565b600154600160a060020a03163314610831576040805160e560020a62461bcd0281526020600482015260216024820152600080516020610f21833981519152604482015260f960020a601702606482015290519081900360840190fd5b61083b8383610d56565b5050505050565b600154600160a060020a0316331461089f576040805160e560020a62461bcd0281526020600482015260216024820152600080516020610f21833981519152604482015260f960020a601702606482015290519081900360840190fd5b61083b8383610d79565b600154600160a060020a03163314610906576040805160e560020a62461bcd0281526020600482015260216024820152600080516020610f21833981519152604482015260f960020a601702606482015290519081900360840190fd5b6109108383610d56565b50505050565b60046020526000908152604090205481565b610930610b44565b1515610974576040805160e560020a62461bcd02815260206004820152601b6024820152600080516020610f41833981519152604482015290519081900360640190fd5b60008054604051600160a060020a03909116907f8be0079c531659141344cd1fd0a4f28419497f9722a3daafe3b4186f6b6457e0908390a36000805473ffffffffffffffffffffffffffffffffffffffff19169055565b600254604080517fa759ee6f0000000000000000000000000000000000000000000000000000000081529051600092600160a060020a03169163a759ee6f91600480830192602092919082900301818787803b158015610a2a57600080fd5b505af1158015610a3e573d6000803e3d6000fd5b505050506040513d6020811015610a5457600080fd5b5051604080517f05c62c2f000000000000000000000000000000000000000000000000000000008152336004828101919091529151929350600160a060020a03808616936108fc93926000928716916305c62c2f91602480820192602092909190829003018186803b158015610ac957600080fd5b505afa158015610add573d6000803e3d6000fd5b505050506040513d6020811015610af357600080fd5b5051815260208101919091526040908101600090812054915182159093029290818181858888f19350505050158015610b30573d6000803e3d6000fd5b505050565b600054600160a060020a031690565b600054600160a060020a0316331490565b565b610b5f610b44565b1515610ba3576040805160e560020a62461bcd02815260206004820152601b6024820152600080516020610f41833981519152604482015290519081900360640190fd5b610bac81610db7565b6002805473ffffffffffffffffffffffffffffffffffffffff1916600160a060020a038381169190911791829055604080517f75d7e4bd000000000000000000000000000000000000000000000000000000008152905192909116916375d7e4bd916004808201926020929091908290030181600087803b158015610c3057600080fd5b505af1158015610c44573d6000803e3d6000fd5b505050506040513d6020811015610c5a57600080fd5b50516003805473ffffffffffffffffffffffffffffffffffffffff1916600160a060020a0390921691909117905550565b600154600160a060020a03163314610ce8576040805160e560020a62461bcd0281526020600482015260216024820152600080516020610f21833981519152604482015260f960020a601702606482015290519081900360840190fd5b6109108383610d79565b610cfa610b44565b1515610d3e576040805160e560020a62461bcd02815260206004820152601b6024820152600080516020610f41833981519152604482015290519081900360640190fd5b6107d181610e32565b600154600160a060020a031681565b610d5f816105ee565b600092835260046020526040909220805490920190915550565b81600160a060020a03166108fc610d8f836105ee565b6040518115909202916000818181858888f19350505050158015610b30573d6000803e3d6000fd5b610dbf610b44565b1515610e03576040805160e560020a62461bcd02815260206004820152601b6024820152600080516020610f41833981519152604482015290519081900360640190fd5b6001805473ffffffffffffffffffffffffffffffffffffffff1916600160a060020a0392909216919091179055565b600160a060020a0381161515610eb8576040805160e560020a62461bcd02815260206004820152602260248201527f6e6577206f776e65722061646472657373206d757374206e6f74206265207a6560448201527f726f000000000000000000000000000000000000000000000000000000000000606482015290519081900360840190fd5b60008054604051600160a060020a03808516939216917f8be0079c531659141344cd1fd0a4f28419497f9722a3daafe3b4186f6b6457e091a36000805473ffffffffffffffffffffffffffffffffffffffff1916600160a060020a039290921691909117905556fe446964206e6f74206f726967696e6174652066726f6d20536e6f77666c616b654d7573742062652063616c6c656420627920746865206f776e65720000000000a165627a7a723058208e44ec73ffcb17f65272fd769a67be658fe50828ae4afab42d0cce25eb858d470029",
  "source": "pragma solidity ^0.5.0;\r\n\r\nimport \"../SnowflakeVia.sol\";\r\nimport \"../interfaces/IdentityRegistryInterface.sol\";\r\nimport \"../interfaces/HydroInterface.sol\";\r\nimport \"../interfaces/SnowflakeInterface.sol\";\r\n\r\ncontract Via is SnowflakeVia {\r\n    SnowflakeInterface private snowflake;\r\n    HydroInterface private hydroToken;\r\n\r\n    constructor (address _snowflakeAddress) SnowflakeVia(_snowflakeAddress) public {\r\n        setSnowflakeAddress(_snowflakeAddress);\r\n    }\r\n\r\n    function setSnowflakeAddress(address _snowflakeAddress) public onlyOwner() {\r\n        super.setSnowflakeAddress(_snowflakeAddress);\r\n\r\n        snowflake = SnowflakeInterface(_snowflakeAddress);\r\n        hydroToken = HydroInterface(snowflake.hydroTokenAddress());\r\n    }\r\n\r\n    // this contract is responsible for funding itself with ETH, and must be entrusted to do so\r\n    function fund() public payable {}\r\n\r\n    // EIN -> ETH balances\r\n    mapping (uint => uint) public balances;\r\n\r\n    // a dummy exchange rate between HYDRO and ETH s.t. 10 HYDRO := 1 ETH for testing purposes\r\n    uint exchangeRate = 10;\r\n    function convertHydroToEth(uint amount) public view returns (uint) {\r\n        return amount / exchangeRate; // POTENTIALLY UNSAFE - always use SafeMath when not testing\r\n    }\r\n\r\n    // end recipient is an EIN, credit their (ETH) balance\r\n    function snowflakeCall(address, uint, uint einTo, uint amount, bytes memory) public senderIsSnowflake() {\r\n        creditEIN(einTo, amount);\r\n    }\r\n\r\n    function snowflakeCall(address, uint einTo, uint amount, bytes memory) public senderIsSnowflake() {\r\n        creditEIN(einTo, amount);\r\n    }\r\n\r\n    function creditEIN(uint einTo, uint amount) private {\r\n        balances[einTo] += convertHydroToEth(amount);\r\n    }\r\n\r\n    // end recipient is an address, send them ETH\r\n    function snowflakeCall(address, uint, address payable to, uint amount, bytes memory) public senderIsSnowflake() {\r\n        creditAddress(to, amount);\r\n    }\r\n\r\n    function snowflakeCall(address, address payable to, uint amount, bytes memory) public senderIsSnowflake() {\r\n        creditAddress(to, amount);\r\n    }\r\n\r\n    function creditAddress(address payable to, uint amount) private {\r\n        to.transfer(convertHydroToEth(amount));\r\n    }\r\n\r\n    // allows hydroIds with balances to withdraw their accumulated eth balance to an address\r\n    function withdrawTo(address payable to) public {\r\n        IdentityRegistryInterface identityRegistry = IdentityRegistryInterface(snowflake.identityRegistryAddress());\r\n        to.transfer(balances[identityRegistry.getEIN(msg.sender)]);\r\n    }\r\n\r\n    // allows the owner to withdraw the contract's accumulated hydro balance to an address\r\n    function withdrawHydroTo(address to) public onlyOwner() {\r\n        require(hydroToken.transfer(to, hydroToken.balanceOf(address(this))), \"Transfer was unsuccessful\");\r\n    }\r\n}\r\n",
  "sourcePath": "C:/Users/HP/Desktop/programming-resources/HydroBlockchain/vaultWallet/smart-contracts/snowflake/contracts/samples/Via.sol",
  "compiler": {
    "name": "solc",
    "version": "0.5.0+commit.1d4f565a.Emscripten.clang"
  },
  "schemaVersion": "3.0.10",
  "updatedAt": "2020-08-17T10:44:17.441Z",
  "devdoc": {
    "methods": {
      "isOwner()": {
        "return": "true if `msg.sender` is the owner of the contract.\r"
      },
      "owner()": {
        "return": "the address of the owner.\r"
      },
      "renounceOwnership()": {
        "details": "Allows the current owner to relinquish control of the contract.\r"
      },
      "transferOwnership(address)": {
        "details": "Allows the current owner to transfer control of the contract to a newOwner.\r",
        "params": {
          "newOwner": "The address to transfer ownership to.\r"
        }
      }
    }
  },
  "userdoc": {
    "methods": {
      "renounceOwnership()": {
        "notice": "Renouncing to ownership will leave the contract without an owner.\r It will not be possible to call the functions with the `onlyOwner`\r modifier anymore.\r"
      }
    }
  }
}