{
  "contractName": "ProtectedWallet",
  "abi": [
    {
      "constant": false,
      "inputs": [],
      "name": "renounceOwnership",
      "outputs": [],
      "payable": false,
      "stateMutability": "nonpayable",
      "type": "function"
    },
    {
      "constant": true,
      "inputs": [],
      "name": "callOnAddition",
      "outputs": [
        {
          "name": "",
          "type": "bool"
        }
      ],
      "payable": false,
      "stateMutability": "view",
      "type": "function"
    },
    {
      "constant": true,
      "inputs": [],
      "name": "snowflakeDescription",
      "outputs": [
        {
          "name": "",
          "type": "string"
        }
      ],
      "payable": false,
      "stateMutability": "view",
      "type": "function"
    },
    {
      "constant": true,
      "inputs": [],
      "name": "snowflakeName",
      "outputs": [
        {
          "name": "",
          "type": "string"
        }
      ],
      "payable": false,
      "stateMutability": "view",
      "type": "function"
    },
    {
      "constant": true,
      "inputs": [],
      "name": "owner",
      "outputs": [
        {
          "name": "",
          "type": "address"
        }
      ],
      "payable": false,
      "stateMutability": "view",
      "type": "function"
    },
    {
      "constant": true,
      "inputs": [],
      "name": "callOnRemoval",
      "outputs": [
        {
          "name": "",
          "type": "bool"
        }
      ],
      "payable": false,
      "stateMutability": "view",
      "type": "function"
    },
    {
      "constant": true,
      "inputs": [],
      "name": "isOwner",
      "outputs": [
        {
          "name": "",
          "type": "bool"
        }
      ],
      "payable": false,
      "stateMutability": "view",
      "type": "function"
    },
    {
      "constant": false,
      "inputs": [
        {
          "name": "newOwner",
          "type": "address"
        }
      ],
      "name": "transferOwnership",
      "outputs": [],
      "payable": false,
      "stateMutability": "nonpayable",
      "type": "function"
    },
    {
      "constant": true,
      "inputs": [],
      "name": "snowflakeAddress",
      "outputs": [
        {
          "name": "",
          "type": "address"
        }
      ],
      "payable": false,
      "stateMutability": "view",
      "type": "function"
    },
    {
      "inputs": [
        {
          "name": "_ein",
          "type": "uint256"
        },
        {
          "name": "_dailyLimit",
          "type": "uint256"
        },
        {
          "name": "snowflakeAddress",
          "type": "address"
        },
        {
          "name": "clientRaindropAddr",
          "type": "address"
        }
      ],
      "payable": false,
      "stateMutability": "nonpayable",
      "type": "constructor"
    },
    {
      "anonymous": false,
      "inputs": [
        {
          "indexed": true,
          "name": "_from",
          "type": "address"
        },
        {
          "indexed": true,
          "name": "_hash",
          "type": "bytes32"
        }
      ],
      "name": "CommitHash",
      "type": "event"
    },
    {
      "anonymous": false,
      "inputs": [
        {
          "indexed": true,
          "name": "_ein",
          "type": "uint256"
        },
        {
          "indexed": true,
          "name": "_amount",
          "type": "uint256"
        },
        {
          "indexed": false,
          "name": "_from",
          "type": "address"
        }
      ],
      "name": "DepositFromSnowflake",
      "type": "event"
    },
    {
      "anonymous": false,
      "inputs": [
        {
          "indexed": true,
          "name": "_amount",
          "type": "uint256"
        },
        {
          "indexed": true,
          "name": "_from",
          "type": "address"
        }
      ],
      "name": "DepositFromAddress",
      "type": "event"
    },
    {
      "anonymous": false,
      "inputs": [
        {
          "indexed": true,
          "name": "_ein",
          "type": "uint256"
        },
        {
          "indexed": true,
          "name": "_amount",
          "type": "uint256"
        }
      ],
      "name": "WithdrawToSnowflake",
      "type": "event"
    },
    {
      "anonymous": false,
      "inputs": [
        {
          "indexed": true,
          "name": "_to",
          "type": "address"
        },
        {
          "indexed": true,
          "name": "_amount",
          "type": "uint256"
        }
      ],
      "name": "WithdrawToAddress",
      "type": "event"
    },
    {
      "anonymous": false,
      "inputs": [
        {
          "indexed": true,
          "name": "shortMessage",
          "type": "uint256"
        }
      ],
      "name": "RaindropMessage",
      "type": "event"
    },
    {
      "anonymous": false,
      "inputs": [
        {
          "indexed": true,
          "name": "requestId",
          "type": "bytes32"
        }
      ],
      "name": "ChainlinkCallback",
      "type": "event"
    },
    {
      "anonymous": false,
      "inputs": [
        {
          "indexed": false,
          "name": "id",
          "type": "bytes32"
        }
      ],
      "name": "ChainlinkRequested",
      "type": "event"
    },
    {
      "anonymous": false,
      "inputs": [
        {
          "indexed": false,
          "name": "id",
          "type": "bytes32"
        }
      ],
      "name": "ChainlinkFulfilled",
      "type": "event"
    },
    {
      "anonymous": false,
      "inputs": [
        {
          "indexed": false,
          "name": "id",
          "type": "bytes32"
        }
      ],
      "name": "ChainlinkCancelled",
      "type": "event"
    },
    {
      "anonymous": false,
      "inputs": [
        {
          "indexed": true,
          "name": "previousOwner",
          "type": "address"
        },
        {
          "indexed": true,
          "name": "newOwner",
          "type": "address"
        }
      ],
      "name": "OwnershipTransferred",
      "type": "event"
    },
    {
      "constant": false,
      "inputs": [
        {
          "name": "_snowflakeAddress",
          "type": "address"
        }
      ],
      "name": "setSnowflakeAddress",
      "outputs": [],
      "payable": false,
      "stateMutability": "nonpayable",
      "type": "function"
    },
    {
      "constant": true,
      "inputs": [],
      "name": "getDailyLimit",
      "outputs": [
        {
          "name": "",
          "type": "uint256"
        }
      ],
      "payable": false,
      "stateMutability": "view",
      "type": "function"
    },
    {
      "constant": false,
      "inputs": [],
      "name": "getLinkBalance",
      "outputs": [
        {
          "name": "",
          "type": "uint256"
        }
      ],
      "payable": false,
      "stateMutability": "nonpayable",
      "type": "function"
    },
    {
      "constant": true,
      "inputs": [
        {
          "name": "commit",
          "type": "bytes32"
        }
      ],
      "name": "checkIfCommitExists",
      "outputs": [
        {
          "name": "",
          "type": "bool"
        }
      ],
      "payable": false,
      "stateMutability": "view",
      "type": "function"
    },
    {
      "constant": true,
      "inputs": [],
      "name": "getEIN",
      "outputs": [
        {
          "name": "",
          "type": "uint256"
        }
      ],
      "payable": false,
      "stateMutability": "view",
      "type": "function"
    },
    {
      "constant": true,
      "inputs": [],
      "name": "getHydroId",
      "outputs": [
        {
          "name": "",
          "type": "string"
        }
      ],
      "payable": false,
      "stateMutability": "view",
      "type": "function"
    },
    {
      "constant": true,
      "inputs": [],
      "name": "getBalance",
      "outputs": [
        {
          "name": "",
          "type": "uint256"
        }
      ],
      "payable": false,
      "stateMutability": "view",
      "type": "function"
    },
    {
      "constant": true,
      "inputs": [],
      "name": "getWithdrawnToday",
      "outputs": [
        {
          "name": "",
          "type": "uint256"
        }
      ],
      "payable": false,
      "stateMutability": "view",
      "type": "function"
    },
    {
      "constant": true,
      "inputs": [
        {
          "name": "from",
          "type": "address"
        }
      ],
      "name": "getCommitHash",
      "outputs": [
        {
          "name": "",
          "type": "bytes32"
        }
      ],
      "payable": false,
      "stateMutability": "view",
      "type": "function"
    },
    {
      "constant": true,
      "inputs": [],
      "name": "getOneTimePassHash",
      "outputs": [
        {
          "name": "",
          "type": "bytes32"
        }
      ],
      "payable": false,
      "stateMutability": "view",
      "type": "function"
    },
    {
      "constant": true,
      "inputs": [],
      "name": "getHasPassword",
      "outputs": [
        {
          "name": "",
          "type": "bool"
        }
      ],
      "payable": false,
      "stateMutability": "view",
      "type": "function"
    },
    {
      "constant": false,
      "inputs": [
        {
          "name": "ids",
          "type": "bytes16[5]"
        }
      ],
      "name": "setJobIds",
      "outputs": [],
      "payable": false,
      "stateMutability": "nonpayable",
      "type": "function"
    },
    {
      "constant": false,
      "inputs": [
        {
          "name": "sender",
          "type": "address"
        },
        {
          "name": "value",
          "type": "uint256"
        },
        {
          "name": "_tokenAddress",
          "type": "address"
        },
        {
          "name": "",
          "type": "bytes"
        }
      ],
      "name": "receiveApproval",
      "outputs": [],
      "payable": false,
      "stateMutability": "nonpayable",
      "type": "function"
    },
    {
      "constant": false,
      "inputs": [
        {
          "name": "amount",
          "type": "uint256"
        }
      ],
      "name": "depositFromSnowflake",
      "outputs": [],
      "payable": false,
      "stateMutability": "nonpayable",
      "type": "function"
    },
    {
      "constant": false,
      "inputs": [
        {
          "name": "amount",
          "type": "uint256"
        },
        {
          "name": "addr",
          "type": "address"
        }
      ],
      "name": "withdrawToAddress",
      "outputs": [],
      "payable": false,
      "stateMutability": "nonpayable",
      "type": "function"
    },
    {
      "constant": false,
      "inputs": [
        {
          "name": "amount",
          "type": "uint256"
        },
        {
          "name": "_einTo",
          "type": "uint256"
        }
      ],
      "name": "withdrawToSnowflake",
      "outputs": [],
      "payable": false,
      "stateMutability": "nonpayable",
      "type": "function"
    },
    {
      "constant": false,
      "inputs": [
        {
          "name": "newDailyLimit",
          "type": "uint256"
        }
      ],
      "name": "requestChangeDailyLimit",
      "outputs": [],
      "payable": false,
      "stateMutability": "nonpayable",
      "type": "function"
    },
    {
      "constant": false,
      "inputs": [],
      "name": "requestChainlinkRecover",
      "outputs": [],
      "payable": false,
      "stateMutability": "nonpayable",
      "type": "function"
    },
    {
      "constant": false,
      "inputs": [
        {
          "name": "amount",
          "type": "uint256"
        },
        {
          "name": "_to",
          "type": "address"
        },
        {
          "name": "numHydro",
          "type": "uint256"
        },
        {
          "name": "minEthBought",
          "type": "uint256"
        }
      ],
      "name": "requestOneTimeTransferExternal",
      "outputs": [],
      "payable": false,
      "stateMutability": "nonpayable",
      "type": "function"
    },
    {
      "constant": false,
      "inputs": [
        {
          "name": "amount",
          "type": "uint256"
        },
        {
          "name": "einTo",
          "type": "uint256"
        }
      ],
      "name": "requestOneTimeWithdrawalExternal",
      "outputs": [],
      "payable": false,
      "stateMutability": "nonpayable",
      "type": "function"
    },
    {
      "constant": false,
      "inputs": [
        {
          "name": "_requestId",
          "type": "bytes32"
        },
        {
          "name": "_response",
          "type": "bool"
        }
      ],
      "name": "fulfillChangeDailyLimit",
      "outputs": [
        {
          "name": "",
          "type": "bool"
        }
      ],
      "payable": false,
      "stateMutability": "nonpayable",
      "type": "function"
    },
    {
      "constant": false,
      "inputs": [
        {
          "name": "_requestId",
          "type": "bytes32"
        },
        {
          "name": "_response",
          "type": "bool"
        }
      ],
      "name": "fulfillChainlinkRecover",
      "outputs": [
        {
          "name": "",
          "type": "bool"
        }
      ],
      "payable": false,
      "stateMutability": "nonpayable",
      "type": "function"
    },
    {
      "constant": false,
      "inputs": [
        {
          "name": "_requestId",
          "type": "bytes32"
        },
        {
          "name": "_response",
          "type": "bool"
        }
      ],
      "name": "fulfillOneTimeTransferExternal",
      "outputs": [
        {
          "name": "",
          "type": "bool"
        }
      ],
      "payable": false,
      "stateMutability": "nonpayable",
      "type": "function"
    },
    {
      "constant": false,
      "inputs": [
        {
          "name": "_requestId",
          "type": "bytes32"
        },
        {
          "name": "_response",
          "type": "bool"
        }
      ],
      "name": "fulfillOneTimeWithdrawalExternal",
      "outputs": [
        {
          "name": "",
          "type": "bool"
        }
      ],
      "payable": false,
      "stateMutability": "nonpayable",
      "type": "function"
    },
    {
      "constant": false,
      "inputs": [],
      "name": "resetChainlinkState",
      "outputs": [
        {
          "name": "",
          "type": "bool"
        }
      ],
      "payable": false,
      "stateMutability": "nonpayable",
      "type": "function"
    },
    {
      "constant": false,
      "inputs": [
        {
          "name": "_hash",
          "type": "bytes32"
        },
        {
          "name": "_dest",
          "type": "address"
        },
        {
          "name": "password",
          "type": "string"
        }
      ],
      "name": "revealAndRecover",
      "outputs": [],
      "payable": false,
      "stateMutability": "nonpayable",
      "type": "function"
    },
    {
      "constant": false,
      "inputs": [
        {
          "name": "ein",
          "type": "uint256"
        },
        {
          "name": "",
          "type": "uint256"
        },
        {
          "name": "extraData",
          "type": "bytes"
        }
      ],
      "name": "onAddition",
      "outputs": [
        {
          "name": "",
          "type": "bool"
        }
      ],
      "payable": false,
      "stateMutability": "nonpayable",
      "type": "function"
    },
    {
      "constant": false,
      "inputs": [
        {
          "name": "_requestId",
          "type": "bytes32"
        },
        {
          "name": "_response",
          "type": "bool"
        }
      ],
      "name": "fulfillOnAddition",
      "outputs": [
        {
          "name": "",
          "type": "bool"
        }
      ],
      "payable": false,
      "stateMutability": "nonpayable",
      "type": "function"
    },
    {
      "constant": false,
      "inputs": [
        {
          "name": "ein",
          "type": "uint256"
        },
        {
          "name": "extraData",
          "type": "bytes"
        }
      ],
      "name": "onRemoval",
      "outputs": [
        {
          "name": "",
          "type": "bool"
        }
      ],
      "payable": false,
      "stateMutability": "nonpayable",
      "type": "function"
    },
    {
      "constant": false,
      "inputs": [
        {
          "name": "_hash",
          "type": "bytes32"
        }
      ],
      "name": "commitHash",
      "outputs": [],
      "payable": false,
      "stateMutability": "nonpayable",
      "type": "function"
    }
  ],
  "bytecode": "0x6080604052600160085560008051602062004c3483398151915260215560008051602062004c3483398151915260225560008051602062004c3483398151915260235560008051602062004c348339815191526024557f62623030303338636432333634336562613330303864383530623563613862616025553480156200008657600080fd5b5060405160808062004c5483398101806040526080811015620000a857600080fd5b50805160208083015160408085015160609586015182518084018452601e81527f596f757220706572736f6e616c2070726f7465637465642077616c6c657400008187015283519788018452603a88527f50726f7465637420796f75722066756e647320776974686f7574206c6f636b69958801959095527f6e67207468656d20757020696e20636f6c642073746f726167650000000000008784015260008054600160a060020a0319163317808255935196979496929591949193919286926001928392600160a060020a0392909216917f8be0079c531659141344cd1fd0a4f28419497f9722a3daafe3b4186f6b6457e0908290a38451620001b490600190602088019062000822565b508351620001ca90600290602087019062000822565b50620001df8364010000000062000525810204565b6003805491151575010000000000000000000000000000000000000000000260a860020a60ff0219931515740100000000000000000000000000000000000000000260a060020a60ff02199093169290921792909216179055506200026591507301be23585060835e02b77ef475b0cc51aa1e0709905064010000000062000729810204565b6200028d73a5e4d80f7fb2cd2db23db79a7337f223c67dad226401000000006200074b810204565b60208054600160a060020a03199081167301be23585060835e02b77ef475b0cc51aa1e070917909155600a8590556017849055601d8054600160a060020a03848116919093161790819055604080517fb93a89f7000000000000000000000000000000000000000000000000000000008152600481018890529051919092169163b93a89f7916024808301926000929190829003018186803b1580156200033357600080fd5b505afa15801562000348573d6000803e3d6000fd5b505050506040513d6000823e601f3d908101601f1916820160409081528110156200037257600080fd5b8151602083018051919392830192916401000000008111156200039457600080fd5b82016020810184811115620003a857600080fd5b8151640100000000811182820187101715620003c357600080fd5b50508051909350600c925060009150620003e590600b90602086019062000822565b508391906101000a815481600160a060020a030219169083600160a060020a0316021790555050506040805190810160405280600781526020017f64726c6a39377700000000000000000000000000000000000000000000000000815250600b90805190602001906200045a92919062000822565b506014805461ff001916905542601655601b8054600160a060020a031916331790819055604080517ff5be48ba00000000000000000000000000000000000000000000000000000000815290516200051b92600160a060020a03169163f5be48ba9160048083019260209291908290030181600087803b158015620004de57600080fd5b505af1158015620004f3573d6000803e3d6000fd5b505050506040513d60208110156200050a57600080fd5b505164010000000062000525810204565b50505050620008c4565b620005386401000000006200076d810204565b1515620005a657604080517f08c379a000000000000000000000000000000000000000000000000000000000815260206004820152601b60248201527f4d7573742062652063616c6c656420627920746865206f776e65720000000000604482015290519081900360640190fd5b620005bf81640100000000620039646200077f82021704565b600354601e8054600160a060020a031916600160a060020a039283161790819055604080517fa759ee6f0000000000000000000000000000000000000000000000000000000081529051919092169163a759ee6f9160048083019260209291908290030181600087803b1580156200063657600080fd5b505af11580156200064b573d6000803e3d6000fd5b505050506040513d60208110156200066257600080fd5b5051601c8054600160a060020a031916600160a060020a03928316179055601e54604080517f75d7e4bd000000000000000000000000000000000000000000000000000000008152905191909216916375d7e4bd9160048083019260209291908290030181600087803b158015620006d957600080fd5b505af1158015620006ee573d6000803e3d6000fd5b505050506040513d60208110156200070557600080fd5b5051601f8054600160a060020a031916600160a060020a0390921691909117905550565b60068054600160a060020a031916600160a060020a0392909216919091179055565b60078054600160a060020a031916600160a060020a0392909216919091179055565b600054600160a060020a031633145b90565b620007926401000000006200076d810204565b15156200080057604080517f08c379a000000000000000000000000000000000000000000000000000000000815260206004820152601b60248201527f4d7573742062652063616c6c656420627920746865206f776e65720000000000604482015290519081900360640190fd5b60038054600160a060020a031916600160a060020a0392909216919091179055565b828054600181600116156101000203166002900490600052602060002090601f016020900481019282601f106200086557805160ff191683800117855562000895565b8280016001018555821562000895579182015b828111156200089557825182559160200191906001019062000878565b50620008a3929150620008a7565b5090565b6200077c91905b80821115620008a35760008155600101620008ae565b61436080620008d46000396000f3fe6080604052600436106101e25763ffffffff7c0100000000000000000000000000000000000000000000000000000000600035041663052174de81146101e7578063064bd92d1461022d5780630be8a336146102f7578063109b80f41461033057806312065fe0146103455780633a590b4a1461036c5780633aec45061461039e5780633c37b640146103d05780634ccd193e146103fa57806350c5f9751461042d5780635b1c4b9914610442578063715018a614610457578063717902511461046c57806372eda5b01461048157806376acf1b6146104ab5780637d4b380d146105355780638890df9d1461054a57806388a0dcd61461057a57806388cdab94146105aa5780638da5cb5b146105bf5780638f06492d146105f05780638f32d59b146106055780638f4ffcb11461061a57806390bfaf40146106ec5780639182621a146107ab57806393119e38146108655780639a24bcc71461087a578063a6895b5a146108bf578063b15f7f1c146108d4578063bb39cd5d14610906578063c677f0181461091b578063c979b05a14610945578063cfaf8e8314610978578063e10c649f146109a2578063e997bdc6146109b7578063ece136de146109e9578063f2fde38b146109fe578063f9f451b814610a31578063fadc294c14610a46575b600080fd5b3480156101f357600080fd5b506102196004803603604081101561020a57600080fd5b50803590602001351515610aa5565b604080519115158252519081900360200190f35b34801561023957600080fd5b506102f56004803603606081101561025057600080fd5b813591600160a060020a036020820135169181019060608101604082013564010000000081111561028057600080fd5b82018360208201111561029257600080fd5b803590602001918460018302840111640100000000831117156102b457600080fd5b91908080601f016020809104026020016040519081016040528093929190818152602001838380828437600092019190915250929550610c01945050505050565b005b34801561030357600080fd5b506102f56004803603604081101561031a57600080fd5b5080359060200135600160a060020a0316610ee0565b34801561033c57600080fd5b506102f5611059565b34801561035157600080fd5b5061035a6113c6565b60408051918252519081900360200190f35b34801561037857600080fd5b506102196004803603604081101561038f57600080fd5b5080359060200135151561145b565b3480156103aa57600080fd5b50610219600480360360408110156103c157600080fd5b50803590602001351515611516565b3480156103dc57600080fd5b506102f5600480360360208110156103f357600080fd5b503561164e565b34801561040657600080fd5b5061035a6004803603602081101561041d57600080fd5b5035600160a060020a0316611701565b34801561043957600080fd5b5061035a61171c565b34801561044e57600080fd5b5061035a611794565b34801561046357600080fd5b506102f561179a565b34801561047857600080fd5b50610219611830565b34801561048d57600080fd5b50610219600480360360208110156104a457600080fd5b5035611851565b3480156104b757600080fd5b506104c0611866565b6040805160208082528351818301528351919283929083019185019080838360005b838110156104fa5781810151838201526020016104e2565b50505050905090810190601f1680156105275780820380516001836020036101000a031916815260200191505b509250505060405180910390f35b34801561054157600080fd5b506102196118f1565b34801561055657600080fd5b506102f56004803603604081101561056d57600080fd5b508035906020013561193d565b34801561058657600080fd5b506102f56004803603604081101561059d57600080fd5b5080359060200135611b9b565b3480156105b657600080fd5b506104c0611f38565b3480156105cb57600080fd5b506105d4611f92565b60408051600160a060020a039092168252519081900360200190f35b3480156105fc57600080fd5b50610219611fa1565b34801561061157600080fd5b50610219611fc3565b34801561062657600080fd5b506102f56004803603608081101561063d57600080fd5b600160a060020a03823581169260208101359260408201359092169181019060808101606082013564010000000081111561067757600080fd5b82018360208201111561068957600080fd5b803590602001918460018302840111640100000000831117156106ab57600080fd5b91908080601f016020809104026020016040519081016040528093929190818152602001838380828437600092019190915250929550611fd4945050505050565b3480156106f857600080fd5b506102196004803603606081101561070f57600080fd5b81359160208101359181019060608101604082013564010000000081111561073657600080fd5b82018360208201111561074857600080fd5b8035906020019184600183028401116401000000008311171561076a57600080fd5b91908080601f0160208091040260200160405190810160405280939291908181526020018383808284376000920191909152509295506120c9945050505050565b3480156107b757600080fd5b50610219600480360360408110156107ce57600080fd5b813591908101906040810160208201356401000000008111156107f057600080fd5b82018360208201111561080257600080fd5b8035906020019184600183028401116401000000008311171561082457600080fd5b91908080601f01602080910402602001604051908101604052809392919081815260200183838082843760009201919091525092955061236e945050505050565b34801561087157600080fd5b5061035a612403565b34801561088657600080fd5b506102f56004803603608081101561089d57600080fd5b50803590600160a060020a036020820135169060408101359060600135612409565b3480156108cb57600080fd5b5061035a6127a1565b3480156108e057600080fd5b50610219600480360360408110156108f757600080fd5b508035906020013515156127a7565b34801561091257600080fd5b5061035a612972565b34801561092757600080fd5b506102f56004803603602081101561093e57600080fd5b5035612978565b34801561095157600080fd5b506102f56004803603602081101561096857600080fd5b5035600160a060020a0316612b48565b34801561098457600080fd5b506102f56004803603602081101561099b57600080fd5b5035612d01565b3480156109ae57600080fd5b506104c0612ff1565b3480156109c357600080fd5b50610219600480360360408110156109da57600080fd5b50803590602001351515613087565b3480156109f557600080fd5b50610219613195565b348015610a0a57600080fd5b506102f560048036036020811015610a2157600080fd5b5035600160a060020a031661319e565b348015610a3d57600080fd5b506105d46131f6565b348015610a5257600080fd5b506102f5600480360360a0811015610a6957600080fd5b810190808060a0019060058060200260405190810160405280929190826005602002808284376000920191909152509194506132059350505050565b6000828152600960205260408120548390600160a060020a03163314610b17576040805160e560020a62461bcd02815260206004820152602860248201526000805160206142d583398151915260448201526000805160206142b5833981519152606482015290519081900360840190fd5b6000818152600960209081526040918290208054600160a060020a0319169055815183815291516000805160206143158339815191529281900390910190a160018315151415610bc857601054600f54610b7a91600160a060020a031690613341565b600f54601354610b8f9163ffffffff6134c216565b60135560108054600160a060020a03191690556000600f819055604051859160008051602061427583398151915291a260019150610bfa565b60108054600160a060020a03191690556000600f819055604051859160008051602061427583398151915291a2600091505b5092915050565b8282826040516020018083600160a060020a0316600160a060020a03166c0100000000000000000000000002815260140182805190602001908083835b60208310610c5d5780518252601f199092019160209182019101610c3e565b6001836020036101000a0380198251168184511680821785525050505050509050019250505060405160208183030381529060405280519060200120141515610d16576040805160e560020a62461bcd02815260206004820152602c60248201527f48617368656420696e7075742076616c756573206e6f7420657175616c20746f60448201527f20636f6d6d697420686173680000000000000000000000000000000000000000606482015290519081900360840190fd5b6000816040516020018082805190602001908083835b60208310610d4b5780518252601f199092019160209182019101610d2c565b6001836020036101000a03801982511681845116808217855250505050505090500191505060405160208183030381529060405280519060200120905060185430826040516020018083600160a060020a0316600160a060020a03166c010000000000000000000000000281526014018281526020019250505060405160208183030381529060405280519060200120141515610e32576040805160e560020a62461bcd02815260206004820152601060248201527f496e76616c69642070617373776f726400000000000000000000000000000000604482015290519081900360640190fd5b610e3e83601354613341565b601b54600a54604080517fb830d685000000000000000000000000000000000000000000000000000000008152600481019290925251600160a060020a039092169163b830d685916024808201926020929091908290030181600087803b158015610ea857600080fd5b505af1158015610ebc573d6000803e3d6000fd5b505050506040513d6020811015610ed257600080fd5b5050600160a060020a038316ff5b601754821115610f60576040805160e560020a62461bcd02815260206004820152602b60248201527f43616e206f6e6c79206d616b65207769746864726177616c7320757020746f2060448201527f6461696c79206c696d6974000000000000000000000000000000000000000000606482015290519081900360840190fd5b60165462015180014211610fdf57601354610f81908363ffffffff6134c216565b601355610f8e8183613341565b601554610fa1908363ffffffff61352216565b6015556040518290600160a060020a038316907feff5d9d691ed56c0656c90a39895e1fdbb9a246a24689a275ed95a9055ebf51290600090a3611055565b426016556000601555601354610ffb908363ffffffff6134c216565b601355601554611011908363ffffffff61352216565b60155561101e8183613341565b6040518290600160a060020a038316907feff5d9d691ed56c0656c90a39895e1fdbb9a246a24689a275ed95a9055ebf51290600090a35b5050565b600a54601c546040805160e060020a6305c62c2f0281523360048201529051600160a060020a03909216916305c62c2f91602480820192602092909190829003018186803b1580156110aa57600080fd5b505afa1580156110be573d6000803e3d6000fd5b505050506040513d60208110156110d457600080fd5b505114611177576040805160e560020a62461bcd02815260206004820152604760248201527f4f6e6c7920616464726573736573206173736f6369617465642077697468207460448201527f6869732077616c6c65742065696e2063616e20696e766f6b652074686973206660648201527f756e6374696f6e00000000000000000000000000000000000000000000000000608482015290519081900360a40190fd5b600c5474010000000000000000000000000000000000000000900460ff161561120f576040805160e560020a62461bcd028152602060048201526024808201527f5265636f76657279207265717565737420616c726561647920696e2070726f6760448201527f7265737300000000000000000000000000000000000000000000000000000000606482015290519081900360840190fd5b6112176141c7565b60225461124590307fb15f7f1c00000000000000000000000000000000000000000000000000000000613586565b6040805180820182526004815260e060020a63726f6c65026020808301919091528251808401909352600683526000805160206142358339815191529083015291925061129991839163ffffffff6135b116565b60408051808201825260078152600080516020614295833981519152602080830191909152600b80548451601f6002600019610100600186161502019093169290920491820184900484028101840190955280855261135994928301828280156113445780601f1061131957610100808354040283529160200191611344565b820191906000526020600020905b81548152906001019060200180831161132757829003601f168201915b5050505050836135b19092919063ffffffff16565b6040805180820190915260078152600080516020614215833981519152602082015243600019014090620f4240820690611395908490836135db565b604051819060008051602061425583398151915290600090a26113c083670de0b6b3a7640000613605565b50505050565b601f54604080517f27e235e30000000000000000000000000000000000000000000000000000000081523060048201529051600092600160a060020a0316916327e235e3916024808301926020929190829003018186803b15801561142a57600080fd5b505afa15801561143e573d6000803e3d6000fd5b505050506040513d602081101561145457600080fd5b5051905090565b6000828152600960205260408120548390600160a060020a031633146114cd576040805160e560020a62461bcd02815260206004820152602860248201526000805160206142d583398151915260448201526000805160206142b5833981519152606482015290519081900360840190fd5b6000818152600960209081526040918290208054600160a060020a0319169055815183815291516000805160206143158339815191529281900390910190a15060019392505050565b6000828152600960205260408120548390600160a060020a03163314611588576040805160e560020a62461bcd02815260206004820152602860248201526000805160206142d583398151915260448201526000805160206142b5833981519152606482015290519081900360840190fd5b6000818152600960209081526040918290208054600160a060020a0319169055815183815291516000805160206143158339815191529281900390910190a160018315151415611623576115e060125460115461361f565b6011546013546115f59163ffffffff6134c216565b601355600060128190556011819055604051859160008051602061427583398151915291a260019150610bfa565b600060128190556011819055604051859160008051602061427583398151915291a260009150610bfa565b60145460ff1615156001146116ad576040805160e560020a62461bcd02815260206004820152601960248201527f57616c6c6574206d75737420686176652070617373776f726400000000000000604482015290519081900360640190fd5b6000818152601960209081526040808320805460ff1916600117905533808452601a9092528083208490555183927fc38ed506edc9404e14f0bb335345918b4d4798a17868c1948c4d3e3f8add644091a350565b600160a060020a03166000908152601a602052604090205490565b60208054604080517f70a082310000000000000000000000000000000000000000000000000000000081523060048201529051600093600160a060020a03909316926370a08231926024808201939182900301818787803b15801561178057600080fd5b505af115801561143e573d6000803e3d6000fd5b60185490565b6117a2611fc3565b15156117e6576040805160e560020a62461bcd02815260206004820152601b60248201526000805160206142f5833981519152604482015290519081900360640190fd5b60008054604051600160a060020a03909116907f8be0079c531659141344cd1fd0a4f28419497f9722a3daafe3b4186f6b6457e0908390a360008054600160a060020a0319169055565b60035474010000000000000000000000000000000000000000900460ff1681565b60009081526019602052604090205460ff1690565b6002805460408051602060018416156101000260001901909316849004601f810184900484028201840190925281815292918301828280156118e95780601f106118be576101008083540402835291602001916118e9565b820191906000526020600020905b8154815290600101906020018083116118cc57829003601f168201915b505050505081565b600c805474ff0000000000000000000000000000000000000000191690556000600d819055600e819055600f81905560108054600160a060020a03191690556011819055601281905590565b600a54601c546040805160e060020a6305c62c2f0281523360048201529051600160a060020a03909216916305c62c2f91602480820192602092909190829003018186803b15801561198e57600080fd5b505afa1580156119a2573d6000803e3d6000fd5b505050506040513d60208110156119b857600080fd5b505114611a35576040805160e560020a62461bcd02815260206004820152603760248201527f4f6e6c79207468652065696e2074686174206f776e7320746869732077616c6c60448201527f65742063616e206d616b65207769746864726177616c73000000000000000000606482015290519081900360840190fd5b601754821115611ab5576040805160e560020a62461bcd02815260206004820152602b60248201527f43616e206f6e6c79206d616b65207769746864726177616c7320757020746f2060448201527f6461696c79206c696d6974000000000000000000000000000000000000000000606482015290519081900360840190fd5b60165462015180014210611b2b57601354611ad6908363ffffffff6134c216565b601355601554611aec908363ffffffff61352216565b601555611af9818361361f565b604051829082907f7acbb25c4780aa40d11e15996ced1299c1e6c54673d3da53b9d72d944588d81290600090a3611055565b426016556000601555601354611b47908363ffffffff6134c216565b601355601554611b5d908363ffffffff61352216565b601555611b6a818361361f565b604051829082907f7acbb25c4780aa40d11e15996ced1299c1e6c54673d3da53b9d72d944588d81290600090a35050565b600a54601c546040805160e060020a6305c62c2f0281523360048201529051600160a060020a03909216916305c62c2f91602480820192602092909190829003018186803b158015611bec57600080fd5b505afa158015611c00573d6000803e3d6000fd5b505050506040513d6020811015611c1657600080fd5b505114611cb9576040805160e560020a62461bcd02815260206004820152604760248201527f4f6e6c7920616464726573736573206173736f6369617465642077697468207460448201527f6869732077616c6c65742065696e2063616e20696e766f6b652074686973206660648201527f756e6374696f6e00000000000000000000000000000000000000000000000000608482015290519081900360a40190fd5b60115415611d37576040805160e560020a62461bcd02815260206004820152602c60248201527f5769746864726177616c20746f2065787465726e616c2065696e20616c72656160448201527f647920696e697469617465640000000000000000000000000000000000000000606482015290519081900360840190fd5b60125415611db5576040805160e560020a62461bcd02815260206004820152602c60248201527f5769746864726177616c20746f2065787465726e616c2065696e20616c72656160448201527f647920696e697469617465640000000000000000000000000000000000000000606482015290519081900360840190fd5b60118290556012819055611dc76141c7565b602454611df590307f3aec450600000000000000000000000000000000000000000000000000000000613586565b6040805180820182526004815260e060020a63726f6c650260208083019190915282518084019093526006835260008051602061423583398151915290830152919250611e4991839163ffffffff6135b116565b60408051808201825260078152600080516020614295833981519152602080830191909152600b80548451601f60026000196101006001861615020190931692909204918201849004840281018401909552808552611ec994928301828280156113445780601f1061131957610100808354040283529160200191611344565b6040805180820190915260078152600080516020614215833981519152602082015243600019014090620f4240820690611f05908490836135db565b604051819060008051602061425583398151915290600090a2611f3083670de0b6b3a7640000613605565b505050505050565b60018054604080516020600284861615610100026000190190941693909304601f810184900484028201840190925281815292918301828280156118e95780601f106118be576101008083540402835291602001916118e9565b600054600160a060020a031690565b6003547501000000000000000000000000000000000000000000900460ff1681565b600054600160a060020a0316331490565b33600160a060020a03831614612034576040805160e560020a62461bcd02815260206004820152601060248201527f4d616c666f726d656420696e7075747300000000000000000000000000000000604482015290519081900360640190fd5b601f54600160a060020a038381169116146120bf576040805160e560020a62461bcd02815260206004820152602d60248201527f546f6b656e2061646472657373206973206e6f742074686520485944524f207460448201527f6f6b656e20636f6e747261637400000000000000000000000000000000000000606482015290519081900360840190fd5b6113c08484613826565b600354600090600160a060020a03163314612154576040805160e560020a62461bcd02815260206004820152602160248201527f446964206e6f74206f726967696e6174652066726f6d20536e6f77666c616b6560448201527f2e00000000000000000000000000000000000000000000000000000000000000606482015290519081900360840190fd5b61215c6141c7565b60255461218a90307f3a590b4a00000000000000000000000000000000000000000000000000000000613586565b6040805180820182526004815260e060020a63726f6c65026020808301919091528251808401909352600883527f7265676973746572000000000000000000000000000000000000000000000000908301529192506121f091839163ffffffff6135b116565b604080518082018252600781527f687964726f496400000000000000000000000000000000000000000000000000602080830191909152600b80548451601f6002600019610100600186161502019093169290920491820184900484028101840190955280855261228294928301828280156113445780601f1061131957610100808354040283529160200191611344565b6014805461ff0019166101001790556122a381670de0b6b3a7640000613605565b508251602014156123635730836040516020018083600160a060020a0316600160a060020a03166c0100000000000000000000000002815260140182805190602001908083835b602083106123095780518252601f1990920191602091820191016122ea565b518151602093840361010090810a60001901801990931692909116919091179091526040805193909501838103601f1901845290945281519101206018555060148054600160ff199091161761ff00191690911790555050505b506001949350505050565b600354600090600160a060020a031633146123f9576040805160e560020a62461bcd02815260206004820152602160248201527f446964206e6f74206f726967696e6174652066726f6d20536e6f77666c616b6560448201527f2e00000000000000000000000000000000000000000000000000000000000000606482015290519081900360840190fd5b5060015b92915050565b600a5490565b600a54601c546040805160e060020a6305c62c2f0281523360048201529051600160a060020a03909216916305c62c2f91602480820192602092909190829003018186803b15801561245a57600080fd5b505afa15801561246e573d6000803e3d6000fd5b505050506040513d602081101561248457600080fd5b505114612527576040805160e560020a62461bcd02815260206004820152604760248201527f4f6e6c7920616464726573736573206173736f6369617465642077697468207460448201527f6869732077616c6c65742065696e2063616e20696e766f6b652074686973206660648201527f756e6374696f6e00000000000000000000000000000000000000000000000000608482015290519081900360a40190fd5b600f54156125a5576040805160e560020a62461bcd02815260206004820152602960248201527f41207472616e73666572207265717565737420697320616c726561647920696e60448201527f2070726f67726573730000000000000000000000000000000000000000000000606482015290519081900360840190fd5b601054600160a060020a031615612606576040805160e560020a62461bcd02815260206004820152601e60248201527f5472616e736665722061646472657373206d7573742062652072657365740000604482015290519081900360640190fd5b600f84905560108054600160a060020a031916600160a060020a03851617905561262e6141c7565b60235461265c90307f052174de00000000000000000000000000000000000000000000000000000000613586565b6040805180820182526004815260e060020a63726f6c6502602080830191909152825180840190935260068352600080516020614235833981519152908301529192506126b091839163ffffffff6135b116565b60408051808201825260078152600080516020614295833981519152602080830191909152600b80548451601f6002600019610100600186161502019093169290920491820184900484028101840190955280855261273094928301828280156113445780601f1061131957610100808354040283529160200191611344565b6040805180820190915260078152600080516020614215833981519152602082015243600019014090620f424082069061276c908490836135db565b604051819060008051602061425583398151915290600090a261279783670de0b6b3a7640000613605565b5050505050505050565b60175490565b6000828152600960205260408120548390600160a060020a03163314612819576040805160e560020a62461bcd02815260206004820152602860248201526000805160206142d583398151915260448201526000805160206142b5833981519152606482015290519081900360840190fd5b6000818152600960209081526040918290208054600160a060020a0319169055815183815291516000805160206143158339815191529281900390910190a16001831515141561295057600061286d6113c6565b600c5490915061288690600160a060020a031682613341565b601b54600a54604080517fb830d685000000000000000000000000000000000000000000000000000000008152600481019290925251600160a060020a039092169163b830d685916024808201926020929091908290030181600087803b1580156128f057600080fd5b505af1158015612904573d6000803e3d6000fd5b505050506040513d602081101561291a57600080fd5b5050600c54604051600160a060020a0390911690869060008051602061427583398151915290600090a280600160a060020a0316ff5b604051849060008051602061427583398151915290600090a260009150610bfa565b60155490565b601c546040805160e060020a6305c62c2f0281523360048201529051600092600160a060020a0316916305c62c2f916024808301926020929190829003018186803b1580156129c657600080fd5b505afa1580156129da573d6000803e3d6000fd5b505050506040513d60208110156129f057600080fd5b5051601354909150612a08908363ffffffff61352216565b601355601e54604080517fedda781500000000000000000000000000000000000000000000000000000000815260048101849052306024820152604481018590529051600160a060020a039092169163edda78159160648082019260009290919082900301818387803b158015612a7e57600080fd5b505af1158015612a92573d6000803e3d6000fd5b5050601c546040805160e060020a6305c62c2f0281523360048201529051869450600160a060020a0390921692506305c62c2f916024808301926020929190829003018186803b158015612ae557600080fd5b505afa158015612af9573d6000803e3d6000fd5b505050506040513d6020811015612b0f57600080fd5b50516040805133815290517f682ed330b40916ec345f4b982a1213097e90b9729d6345cc938dd9a0fba977249181900360200190a35050565b612b50611fc3565b1515612b94576040805160e560020a62461bcd02815260206004820152601b60248201526000805160206142f5833981519152604482015290519081900360640190fd5b612b9d81613964565b600354601e8054600160a060020a031916600160a060020a039283161790819055604080517fa759ee6f0000000000000000000000000000000000000000000000000000000081529051919092169163a759ee6f9160048083019260209291908290030181600087803b158015612c1357600080fd5b505af1158015612c27573d6000803e3d6000fd5b505050506040513d6020811015612c3d57600080fd5b5051601c8054600160a060020a031916600160a060020a03928316179055601e54604080517f75d7e4bd000000000000000000000000000000000000000000000000000000008152905191909216916375d7e4bd9160048083019260209291908290030181600087803b158015612cb357600080fd5b505af1158015612cc7573d6000803e3d6000fd5b505050506040513d6020811015612cdd57600080fd5b5051601f8054600160a060020a031916600160a060020a0390921691909117905550565b600a54601c546040805160e060020a6305c62c2f0281523360048201529051600160a060020a03909216916305c62c2f91602480820192602092909190829003018186803b158015612d5257600080fd5b505afa158015612d66573d6000803e3d6000fd5b505050506040513d6020811015612d7c57600080fd5b505114612df9576040805160e560020a62461bcd02815260206004820152603760248201527f4f6e6c79207468652065696e2074686174206f776e7320746869732077616c6c60448201527f65742063616e206d616b65207769746864726177616c73000000000000000000606482015290519081900360840190fd5b600d5415612e77576040805160e560020a62461bcd02815260206004820152603360248201527f41206368616e6765206461696c79206c696d697420726571756573742069732060448201527f616c726561647920696e2070726f677265737300000000000000000000000000606482015290519081900360840190fd5b612e7f6141c7565b602154612ead90307fe997bdc600000000000000000000000000000000000000000000000000000000613586565b6040805180820182526004815260e060020a63726f6c650260208083019190915282518084019093526006835260008051602061423583398151915290830152919250612f0191839163ffffffff6135b116565b60408051808201825260078152600080516020614295833981519152602080830191909152600b80548451601f60026000196101006001861615020190931692909204918201849004840281018401909552808552612f8194928301828280156113445780601f1061131957610100808354040283529160200191611344565b6040805180820190915260078152600080516020614215833981519152602082015243600019014090620f4240820690612fbd908490836135db565b612fcf83670de0b6b3a7640000613605565b50604051819060008051602061425583398151915290600090a2505050600d55565b600b8054604080516020601f600260001961010060018816150201909516949094049384018190048102820181019092528281526060939092909183018282801561307d5780601f106130525761010080835404028352916020019161307d565b820191906000526020600020905b81548152906001019060200180831161306057829003601f168201915b5050505050905090565b6000828152600960205260408120548390600160a060020a031633146130f9576040805160e560020a62461bcd02815260206004820152602860248201526000805160206142d583398151915260448201526000805160206142b5833981519152606482015290519081900360840190fd5b6000818152600960209081526040918290208054600160a060020a0319169055815183815291516000805160206143158339815191529281900390910190a16001831515141561316f57600d8054601755600090819055604051859160008051602061427583398151915291a260019150610bfa565b6000600d819055604051859160008051602061427583398151915291a260009150610bfa565b60145460ff1690565b6131a6611fc3565b15156131ea576040805160e560020a62461bcd02815260206004820152601b60248201526000805160206142f5833981519152604482015290519081900360640190fd5b6131f3816139d2565b50565b600354600160a060020a031681565b600a54601c546040805160e060020a6305c62c2f0281523360048201529051600160a060020a03909216916305c62c2f91602480820192602092909190829003018186803b15801561325657600080fd5b505afa15801561326a573d6000803e3d6000fd5b505050506040513d602081101561328057600080fd5b5051146132fd576040805160e560020a62461bcd02815260206004820152603760248201527f4f6e6c79207468652065696e2074686174206f776e7320746869732077616c6c60448201527f65742063616e206d616b65207769746864726177616c73000000000000000000606482015290519081900360840190fd5b80516fffffffffffffffffffffffffffffffff1990811660215560208201518116602255604082015181166023556060820151811660245560809091015116602555565b600354604080517f75d7e4bd0000000000000000000000000000000000000000000000000000000081529051600092600160a060020a0316916375d7e4bd91600480830192602092919082900301818787803b1580156133a057600080fd5b505af11580156133b4573d6000803e3d6000fd5b505050506040513d60208110156133ca57600080fd5b5051604080517fa9059cbb000000000000000000000000000000000000000000000000000000008152600160a060020a0386811660048301526024820186905291519293509083169163a9059cbb916044808201926020929091908290030181600087803b15801561343b57600080fd5b505af115801561344f573d6000803e3d6000fd5b505050506040513d602081101561346557600080fd5b505115156134bd576040805160e560020a62461bcd02815260206004820152601660248201527f556e7375636365737366756c207472616e736665722e00000000000000000000604482015290519081900360640190fd5b505050565b60008282111561351c576040805160e560020a62461bcd02815260206004820152601260248201527f736f6d657468696e672068617070656e65640000000000000000000000000000604482015290519081900360640190fd5b50900390565b60008282018381101561357f576040805160e560020a62461bcd02815260206004820152601260248201527f736f6d657468696e672068617070656e65640000000000000000000000000000604482015290519081900360640190fd5b9392505050565b61358e6141c7565b6135966141c7565b6135a88186868663ffffffff613ab316565b95945050505050565b60808301516135c6908363ffffffff613b1916565b60808301516134bd908263ffffffff613b1916565b60808301516135f0908363ffffffff613b1916565b60808301516134bd908263ffffffff613b3616565b60075460009061357f90600160a060020a03168484613b42565b600354604080517f75d7e4bd0000000000000000000000000000000000000000000000000000000081529051600092600160a060020a0316916375d7e4bd91600480830192602092919082900301818787803b15801561367e57600080fd5b505af1158015613692573d6000803e3d6000fd5b505050506040513d60208110156136a857600080fd5b5051600354604080516020818101889052825180830382018152828401938490527fcae9ca5100000000000000000000000000000000000000000000000000000000909352600160a060020a039384166044830181815260648401899052606060848501908152855160a486015285519798509588169663cae9ca519692958a95909492939260c4909101919085019080838360005b8381101561375657818101518382015260200161373e565b50505050905090810190601f1680156137835780820380516001836020036101000a031916815260200191505b50945050505050602060405180830381600087803b1580156137a457600080fd5b505af11580156137b8573d6000803e3d6000fd5b505050506040513d60208110156137ce57600080fd5b505115156134bd576040805160e560020a62461bcd02815260206004820152601c60248201527f556e7375636365737366756c20617070726f7665416e6443616c6c2e00000000604482015290519081900360640190fd5b601f54604080517f23b872dd000000000000000000000000000000000000000000000000000000008152600160a060020a03858116600483015230602483015260448201859052915191909216916323b872dd9160648083019260209291908290030181600087803b15801561389b57600080fd5b505af11580156138af573d6000803e3d6000fd5b505050506040513d60208110156138c557600080fd5b5051151561391d576040805160e560020a62461bcd02815260206004820152601f60248201527f4d757374207472616e7366657220746f6b656e2066726f6d2073656e64657200604482015290519081900360640190fd5b601354613930908263ffffffff61352216565b601355604051309082907f3dec06b89ecaf1ba5b72b48b85367bb79b0411f8b5d8222b981d05fd6dc237e990600090a35050565b61396c611fc3565b15156139b0576040805160e560020a62461bcd02815260206004820152601b60248201526000805160206142f5833981519152604482015290519081900360640190fd5b60038054600160a060020a031916600160a060020a0392909216919091179055565b600160a060020a0381161515613a58576040805160e560020a62461bcd02815260206004820152602260248201527f6e6577206f776e65722061646472657373206d757374206e6f74206265207a6560448201527f726f000000000000000000000000000000000000000000000000000000000000606482015290519081900360840190fd5b60008054604051600160a060020a03808516939216917f8be0079c531659141344cd1fd0a4f28419497f9722a3daafe3b4186f6b6457e091a360008054600160a060020a031916600160a060020a0392909216919091179055565b613abb6141c7565b613acb8560800151610100613d96565b838552600160a060020a03831660208601527bffffffffffffffffffffffffffffffffffffffffffffffffffffffff19821660408601526080850151613b1090613dc6565b50929392505050565b613b268260038351613dd1565b6134bd828263ffffffff613ecf16565b61105582600083613dd1565b600854604080516c010000000000000000000000003002602080830191909152603480830185905283518084039091018152605490920190925280519101206060840191909152613b9283613f5c565b6000818152600960209081526040918290208054600160a060020a031916600160a060020a038816179055815183815291517fb5e6e01e79f91267dc17b4e6314d5d4d03593d2ceee0fbb452b750bd70ea5af99281900390910190a1600654600160a060020a0316634000aea08584613c0a87613f69565b6040518463ffffffff167c01000000000000000000000000000000000000000000000000000000000281526004018084600160a060020a0316600160a060020a0316815260200183815260200180602001828103825283818151815260200191508051906020019080838360005b83811015613c90578181015183820152602001613c78565b50505050905090810190601f168015613cbd5780820380516001836020036101000a031916815260200191505b50945050505050602060405180830381600087803b158015613cde57600080fd5b505af1158015613cf2573d6000803e3d6000fd5b505050506040513d6020811015613d0857600080fd5b50511515613d86576040805160e560020a62461bcd02815260206004820152602360248201527f756e61626c6520746f207472616e73666572416e6443616c6c20746f206f726160448201527f636c650000000000000000000000000000000000000000000000000000000000606482015290519081900360840190fd5b6008805460010190559392505050565b6000613daa6020601f1984601f01166140ed565b6020840181905260408051948590526000855293019092525050565b6131f3816005614104565b60178111613df257613ded8360ff84811660200216831761411d565b6134bd565b60ff8111613e2b57613e13836018602060ff8616021763ffffffff61411d16565b613e258382600163ffffffff61415616565b506134bd565b61ffff8111613e5f57613e4d836019602060ff8616021763ffffffff61411d16565b613e258382600263ffffffff61415616565b63ffffffff8111613e9557613e8383601a602060ff8616021763ffffffff61411d16565b613e258382600463ffffffff61415616565b67ffffffffffffffff81116134bd57613ebd83601b602060ff8616021763ffffffff61411d16565b6113c08382600863ffffffff61415616565b613ed76141fc565b60208301518351518351011115613f0357613f0383613efb856020015185516140ed565b6002026141a6565b815183518051808301825201602090810191908401905b60208110613f39578151835260209283019290910190601f1901613f1a565b905182516020929092036101000a60001901801990911691161790525090919050565b6131f381608001516141bc565b8051602080830151604080850151606086810151608088015151935160006024820181815260448301829052600160648401819052608484018b9052600160a060020a03891660a48501527bffffffffffffffffffffffffffffffffffffffffffffffffffffffff19871660c485015260e48401859052610100610104850190815288516101248601528851969b7fc3d2026f000000000000000000000000000000000000000000000000000000009b949a8b9a93999198909791969195939493610144909201918501908083838e5b83811015614051578181015183820152602001614039565b50505050905090810190601f16801561407e5780820380516001836020036101000a031916815260200191505b5060408051601f198184030181529190526020810180517bffffffffffffffffffffffffffffffffffffffffffffffffffffffff167bffffffffffffffffffffffffffffffffffffffffffffffffffffffff19909d169c909c17909b5250989950505050505050505050919050565b6000818311156140fe5750816123fd565b50919050565b61105582601f602060ff8516021763ffffffff61411d16565b6020820151825151600101111561413f5761413f8283602001516002026141a6565b815180516020818301018381535060010190525050565b61415e6141fc565b6020840151845151830111156141805761418084613efb8660200151856140ed565b50825180518082018301805161010085900a600019011916949094179093529101905290565b81516141b28383613d96565b6113c08382613ecf565b6131f3816007614104565b6040805160c0810182526000808252602082018190529181018290526060810191909152608081016141f76141fc565b905290565b6040805180820190915260608152600060208201529056fe6d65737361676500000000000000000000000000000000000000000000000000636c69656e74000000000000000000000000000000000000000000000000000014c5d3ce7dbdeffde46779767399e1b6d0a285f0a2b025d4214d55de8fc6f72c822f0b2d68466e90cdeeb05f6d9ad459b35f7ebcc413e30d9b03d3018719f8fc687964726f6964000000000000000000000000000000000000000000000000002072657175657374000000000000000000000000000000000000000000000000736f75726365206d75737420626520746865206f7261636c65206f66207468654d7573742062652063616c6c656420627920746865206f776e657200000000007cc135e0cebb02c3480ae5d74d377283180a2601f8f644edf7987b009316c63aa165627a7a723058200a7254abcf2ecac0c34498376c719852adca2c5b8523cad408755799d6a0171200296632366238313834613130363434396339613831636364616531656630623563",
  "source": "pragma solidity ^0.5.0;\r\n\r\nimport \"./interfaces/ProtectedWalletFactoryInterface.sol\";\r\nimport \"./interfaces/SnowflakeInterface.sol\";\r\nimport \"./interfaces/ClientRaindropInterface.sol\";\r\nimport \"./interfaces/IdentityRegistryInterface.sol\";\r\nimport \"./Chainlink/interfaces/LinkTokenInterface.sol\";\r\nimport \"./SnowflakeResolver.sol\";\r\nimport \"./interfaces/HydroInterface.sol\";\r\nimport \"./zeppelin/math/SafeMath.sol\";\r\nimport \"./Chainlink/Chainlinked.sol\";\r\n\r\n//import \"./interfaces/SnowflakeViaInterface.sol\";\r\n\r\ncontract ProtectedWallet is SnowflakeResolver, Chainlinked {\r\n    using SafeMath for uint256;\r\n\r\n    // Persistent state variables\r\n    uint256 private ein;\r\n    string private hydroId;\r\n    address private hydroIdAddr;\r\n\r\n    // Chainlink 2FA state variables\r\n    bool private pendingRecovery;\r\n    uint256 private pendingDailyLimit;\r\n    uint256 private oneTimeWithdrawalAmount;\r\n    uint256 private oneTimeTransferExtAmount;\r\n    address private oneTimeTransferExtAddress;\r\n    uint256 private oneTimeWithdrawalExtAmount;\r\n    uint256 private oneTimeWithdrawalExtEin;\r\n\r\n    uint256 private hydroBalance;\r\n    bool private hasPassword;\r\n    bool private resolverAdded;\r\n    uint256 private withdrawnToday;\r\n    uint256 private timestamp;\r\n    uint256 private dailyLimit;\r\n\r\n    bytes32 private oneTimePass;\r\n    mapping(bytes32 => bool) private passHashCommit;\r\n    mapping(address => bytes32) private commitHashFrom;\r\n\r\n    ProtectedWalletFactoryInterface factoryContract;\r\n    IdentityRegistryInterface idRegistry;\r\n    ClientRaindropInterface clientRaindrop;\r\n    SnowflakeInterface snowflake;\r\n    HydroInterface hydro;\r\n    LinkTokenInterface linkContract;\r\n    //SnowflakeViaInterface           uniswapVia;\r\n\r\n    event CommitHash(address indexed _from, bytes32 indexed _hash);\r\n    event DepositFromSnowflake(\r\n        uint256 indexed _ein,\r\n        uint256 indexed _amount,\r\n        address _from\r\n    );\r\n    event DepositFromAddress(uint256 indexed _amount, address indexed _from);\r\n    event WithdrawToSnowflake(uint256 indexed _ein, uint256 indexed _amount);\r\n    event WithdrawToAddress(address indexed _to, uint256 indexed _amount);\r\n    event RaindropMessage(uint256 indexed shortMessage);\r\n    event ChainlinkCallback(bytes32 indexed requestId);\r\n\r\n    // Chainlink job identifiers\r\n    bytes32 LIMIT_JOB = bytes32(\"f26b8184a106449c9a81ccdae1ef0b5c\");\r\n    bytes32 RECOVER_JOB = bytes32(\"f26b8184a106449c9a81ccdae1ef0b5c\");\r\n    bytes32 ONETIME_TRANSFEREXT_JOB = bytes32(\r\n        \"f26b8184a106449c9a81ccdae1ef0b5c\"\r\n    );\r\n    bytes32 ONETIME_WITHDRAWEXT_JOB = bytes32(\r\n        \"f26b8184a106449c9a81ccdae1ef0b5c\"\r\n    );\r\n    bytes32 HYDRO_ID_JOB = bytes32(\"bb00038cd23643eba3008d850b5ca8ba\");\r\n\r\n    constructor(\r\n        uint256 _ein,\r\n        uint256 _dailyLimit,\r\n        address snowflakeAddress,\r\n        address clientRaindropAddr\r\n    )\r\n        public\r\n        SnowflakeResolver(\r\n            \"Your personal protected wallet\",\r\n            \"Protect your funds without locking them up in cold storage\",\r\n            snowflakeAddress,\r\n            true,\r\n            true\r\n        )\r\n    {\r\n        setLinkToken(0x01BE23585060835E02B77ef475b0Cc51aA1e0709);\r\n        setOracle(0xA5e4D80F7FB2cd2dB23DB79A7337f223C67DaD22);\r\n        linkContract = LinkTokenInterface(\r\n            0x01BE23585060835E02B77ef475b0Cc51aA1e0709\r\n        );\r\n        ein = _ein;\r\n        dailyLimit = _dailyLimit;\r\n        clientRaindrop = ClientRaindropInterface(clientRaindropAddr);\r\n        (hydroIdAddr, hydroId) = clientRaindrop.getDetails(ein);\r\n        hydroId = \"drlj97w\";\r\n        resolverAdded = false;\r\n        timestamp = now;\r\n        factoryContract = ProtectedWalletFactoryInterface(msg.sender);\r\n        setSnowflakeAddress(address(factoryContract.getSnowflakeAddress()));\r\n    }\r\n\r\n    function setSnowflakeAddress(address _snowflakeAddress) public onlyOwner() {\r\n        super.setSnowflakeAddress(_snowflakeAddress);\r\n        snowflake = SnowflakeInterface(snowflakeAddress);\r\n        idRegistry = IdentityRegistryInterface(\r\n            snowflake.identityRegistryAddress()\r\n        );\r\n        hydro = HydroInterface(snowflake.hydroTokenAddress());\r\n    }\r\n\r\n    modifier walletHasPassword() {\r\n        require(hasPassword == true, \"Wallet must have password\");\r\n        _;\r\n    }\r\n\r\n    // Getters\r\n    //Returns the contract daily withdrawal limit\r\n    function getDailyLimit() public view returns (uint256) {\r\n        return dailyLimit;\r\n    }\r\n\r\n    // Returns the current balance in link tokens\r\n    function getLinkBalance() public returns (uint256) {\r\n        return linkContract.balanceOf(address(this));\r\n    }\r\n\r\n    // Returns whether or not a password recovery commit has been pushed\r\n    function checkIfCommitExists(bytes32 commit) public view returns (bool) {\r\n        return passHashCommit[commit];\r\n    }\r\n\r\n    // Returns the EIN associated with this contract\r\n    function getEIN() public view returns (uint256) {\r\n        return ein;\r\n    }\r\n\r\n    // Returns the hydroId used for chainlinked 2FA and recovery\r\n    function getHydroId() public view returns (string memory) {\r\n        return hydroId;\r\n    }\r\n\r\n    // Returns the current balance of the contract in hydro tokens\r\n    function getBalance() public view returns (uint256) {\r\n        return hydro.balances(address(this));\r\n    }\r\n\r\n    // Returns the amount of tokens withdrawn within the last 24 hour period\r\n    function getWithdrawnToday() public view returns (uint256) {\r\n        return withdrawnToday;\r\n    }\r\n\r\n    // Returns the commit hash\r\n    function getCommitHash(address from) public view returns (bytes32) {\r\n        return commitHashFrom[from];\r\n    }\r\n\r\n    //\r\n    function getOneTimePassHash() public view returns (bytes32) {\r\n        return oneTimePass;\r\n    }\r\n\r\n    function getHasPassword() public view returns (bool) {\r\n        return hasPassword;\r\n    }\r\n\r\n    function setJobIds(bytes16[5] memory ids) public {\r\n        require(\r\n            idRegistry.getEIN(msg.sender) == ein,\r\n            \"Only the ein that owns this wallet can make withdrawals\"\r\n        );\r\n        LIMIT_JOB = bytes32(ids[0]);\r\n        RECOVER_JOB = bytes32(ids[1]);\r\n        ONETIME_TRANSFEREXT_JOB = bytes32(ids[2]);\r\n        ONETIME_WITHDRAWEXT_JOB = bytes32(ids[3]);\r\n        HYDRO_ID_JOB = bytes32(ids[4]);\r\n    }\r\n\r\n    // Wallet Logic\r\n    function receiveApproval(\r\n        address sender,\r\n        uint256 value,\r\n        address _tokenAddress,\r\n        bytes memory\r\n    ) public {\r\n        require(msg.sender == _tokenAddress, \"Malformed inputs\");\r\n        require(\r\n            _tokenAddress == address(hydro),\r\n            \"Token address is not the HYDRO token contract\"\r\n        );\r\n        depositFromAddress(sender, value);\r\n    }\r\n\r\n    function depositFromAddress(address sender, uint256 value) internal {\r\n        require(\r\n            hydro.transferFrom(sender, address(this), value),\r\n            \"Must transfer token from sender\"\r\n        );\r\n        hydroBalance = hydroBalance.add(value);\r\n        emit DepositFromAddress(value, address(this));\r\n    }\r\n\r\n    function depositFromSnowflake(uint256 amount) public {\r\n        uint256 _ein = idRegistry.getEIN(msg.sender);\r\n        hydroBalance = hydroBalance.add(amount);\r\n        snowflake.withdrawSnowflakeBalanceFrom(_ein, address(this), amount);\r\n        emit DepositFromSnowflake(\r\n            idRegistry.getEIN(msg.sender),\r\n            amount,\r\n            msg.sender\r\n        );\r\n    }\r\n\r\n    function withdrawToAddress(uint256 amount, address addr) public {\r\n        require(\r\n            amount <= dailyLimit,\r\n            \"Can only make withdrawals up to daily limit\"\r\n        );\r\n        if (now <= timestamp + 1 days) {\r\n            hydroBalance = hydroBalance.sub(amount);\r\n            withdrawHydroBalanceTo(addr, amount);\r\n            withdrawnToday = withdrawnToday.add(amount);\r\n            emit WithdrawToAddress(addr, amount);\r\n        } else {\r\n            timestamp = now;\r\n            withdrawnToday = 0;\r\n            hydroBalance = hydroBalance.sub(amount);\r\n            withdrawnToday = withdrawnToday.add(amount);\r\n            withdrawHydroBalanceTo(addr, amount);\r\n            emit WithdrawToAddress(addr, amount);\r\n        }\r\n    }\r\n\r\n    function withdrawToSnowflake(uint256 amount, uint256 _einTo) public {\r\n        require(\r\n            idRegistry.getEIN(msg.sender) == ein,\r\n            \"Only the ein that owns this wallet can make withdrawals\"\r\n        );\r\n        require(\r\n            amount <= dailyLimit,\r\n            \"Can only make withdrawals up to daily limit\"\r\n        );\r\n        if (now >= timestamp + 1 days) {\r\n            hydroBalance = hydroBalance.sub(amount);\r\n            withdrawnToday = withdrawnToday.add(amount);\r\n            transferHydroBalanceTo(_einTo, amount);\r\n            emit WithdrawToSnowflake(_einTo, amount);\r\n        } else {\r\n            timestamp = now;\r\n            withdrawnToday = 0;\r\n            hydroBalance = hydroBalance.sub(amount);\r\n            withdrawnToday = withdrawnToday.add(amount);\r\n            transferHydroBalanceTo(_einTo, amount);\r\n            emit WithdrawToSnowflake(_einTo, amount);\r\n        }\r\n    }\r\n\r\n    // Request to adjust daily limit\r\n    function requestChangeDailyLimit(uint256 newDailyLimit) public {\r\n        require(\r\n            idRegistry.getEIN(msg.sender) == ein,\r\n            \"Only the ein that owns this wallet can make withdrawals\"\r\n        );\r\n        require(\r\n            pendingDailyLimit == 0,\r\n            \"A change daily limit request is already in progress\"\r\n        );\r\n        ChainlinkLib.Run memory run = newRun(\r\n            LIMIT_JOB,\r\n            address(this),\r\n            this.fulfillChangeDailyLimit.selector\r\n        );\r\n        run.add(\"role\", \"client\");\r\n        run.add(\"hydroid\", hydroId);\r\n        uint256 longMessage = uint256(blockhash(block.number - 1));\r\n        uint256 shortMessage = longMessage % 1000000;\r\n        run.addUint(\"message\", shortMessage);\r\n        chainlinkRequest(run, 1 ether);\r\n        emit RaindropMessage(shortMessage);\r\n        pendingDailyLimit = newDailyLimit;\r\n    }\r\n\r\n    // request to run the one time chainlinked recovery\r\n    function requestChainlinkRecover() public {\r\n        require(\r\n            idRegistry.getEIN(msg.sender) == ein,\r\n            \"Only addresses associated with this wallet ein can invoke this function\"\r\n        );\r\n        require(\r\n            pendingRecovery == false,\r\n            \"Recovery request already in progress\"\r\n        );\r\n        ChainlinkLib.Run memory run = newRun(\r\n            RECOVER_JOB,\r\n            address(this),\r\n            this.fulfillChainlinkRecover.selector\r\n        );\r\n        run.add(\"role\", \"client\");\r\n        run.add(\"hydroid\", hydroId);\r\n        uint256 longMessage = uint256(blockhash(block.number - 1));\r\n        uint256 shortMessage = longMessage % 1000000;\r\n        run.addUint(\"message\", shortMessage);\r\n        emit RaindropMessage(shortMessage);\r\n        chainlinkRequest(run, 1 ether);\r\n    }\r\n\r\n    // Request to transfer hydro above daily limit to an external address\r\n    function requestOneTimeTransferExternal(\r\n        uint256 amount,\r\n        address _to,\r\n        uint256 numHydro,\r\n        uint256 minEthBought\r\n    ) public {\r\n        require(\r\n            idRegistry.getEIN(msg.sender) == ein,\r\n            \"Only addresses associated with this wallet ein can invoke this function\"\r\n        );\r\n        require(\r\n            oneTimeTransferExtAmount == 0,\r\n            \"A transfer request is already in progress\"\r\n        );\r\n        require(\r\n            oneTimeTransferExtAddress == address(0),\r\n            \"Transfer address must be reset\"\r\n        );\r\n        oneTimeTransferExtAmount = amount;\r\n        oneTimeTransferExtAddress = _to;\r\n        ChainlinkLib.Run memory run = newRun(\r\n            ONETIME_TRANSFEREXT_JOB,\r\n            address(this),\r\n            this.fulfillOneTimeTransferExternal.selector\r\n        );\r\n        run.add(\"role\", \"client\");\r\n        run.add(\"hydroid\", hydroId);\r\n        uint256 longMessage = uint256(blockhash(block.number - 1));\r\n        uint256 shortMessage = longMessage % 1000000;\r\n        run.addUint(\"message\", shortMessage);\r\n        emit RaindropMessage(shortMessage);\r\n        chainlinkRequest(run, 1 ether);\r\n    }\r\n\r\n    // Request to withdraw hydro above daily limit to an external ein\r\n    function requestOneTimeWithdrawalExternal(uint256 amount, uint256 einTo)\r\n        public\r\n    {\r\n        require(\r\n            idRegistry.getEIN(msg.sender) == ein,\r\n            \"Only addresses associated with this wallet ein can invoke this function\"\r\n        );\r\n        require(\r\n            oneTimeWithdrawalExtAmount == 0,\r\n            \"Withdrawal to external ein already initiated\"\r\n        );\r\n        require(\r\n            oneTimeWithdrawalExtEin == 0,\r\n            \"Withdrawal to external ein already initiated\"\r\n        );\r\n        oneTimeWithdrawalExtAmount = amount;\r\n        oneTimeWithdrawalExtEin = einTo;\r\n        ChainlinkLib.Run memory run = newRun(\r\n            ONETIME_WITHDRAWEXT_JOB,\r\n            address(this),\r\n            this.fulfillOneTimeWithdrawalExternal.selector\r\n        );\r\n        run.add(\"role\", \"client\");\r\n        run.add(\"hydroid\", hydroId);\r\n        uint256 longMessage = uint256(blockhash(block.number - 1));\r\n        uint256 shortMessage = longMessage % 1000000;\r\n        run.addUint(\"message\", shortMessage);\r\n        emit RaindropMessage(shortMessage);\r\n        chainlinkRequest(run, 1 ether);\r\n    }\r\n\r\n    function fulfillChangeDailyLimit(bytes32 _requestId, bool _response)\r\n        public\r\n        checkChainlinkFulfillment(_requestId)\r\n        returns (bool)\r\n    {\r\n        if (_response == true) {\r\n            dailyLimit = pendingDailyLimit;\r\n            pendingDailyLimit = 0;\r\n            emit ChainlinkCallback(_requestId);\r\n            return true;\r\n        } else {\r\n            pendingDailyLimit = 0;\r\n            emit ChainlinkCallback(_requestId);\r\n            return false;\r\n        }\r\n    }\r\n\r\n    function fulfillChainlinkRecover(bytes32 _requestId, bool _response)\r\n        public\r\n        checkChainlinkFulfillment(_requestId)\r\n        returns (bool)\r\n    {\r\n        if (_response == true) {\r\n            uint256 amount = getBalance();\r\n            withdrawHydroBalanceTo(hydroIdAddr, amount);\r\n            factoryContract.deleteWallet(ein);\r\n            address payable hydroAddr = address(uint160(hydroIdAddr));\r\n            emit ChainlinkCallback(_requestId);\r\n            selfdestruct(hydroAddr);\r\n        } else {\r\n            emit ChainlinkCallback(_requestId);\r\n            return false;\r\n        }\r\n    }\r\n\r\n    function fulfillOneTimeTransferExternal(bytes32 _requestId, bool _response)\r\n        public\r\n        checkChainlinkFulfillment(_requestId)\r\n        returns (bool)\r\n    {\r\n        if (_response == true) {\r\n            withdrawHydroBalanceTo(\r\n                oneTimeTransferExtAddress,\r\n                oneTimeTransferExtAmount\r\n            );\r\n            hydroBalance = hydroBalance.sub(oneTimeTransferExtAmount);\r\n            oneTimeTransferExtAddress = address(0);\r\n            oneTimeTransferExtAmount = 0;\r\n            emit ChainlinkCallback(_requestId);\r\n            return true;\r\n        } else {\r\n            oneTimeTransferExtAddress = address(0);\r\n            oneTimeTransferExtAmount = 0;\r\n            emit ChainlinkCallback(_requestId);\r\n            return false;\r\n        }\r\n    }\r\n\r\n    function fulfillOneTimeWithdrawalExternal(\r\n        bytes32 _requestId,\r\n        bool _response\r\n    ) public checkChainlinkFulfillment(_requestId) returns (bool) {\r\n        if (_response == true) {\r\n            transferHydroBalanceTo(\r\n                oneTimeWithdrawalExtEin,\r\n                oneTimeWithdrawalExtAmount\r\n            );\r\n            hydroBalance = hydroBalance.sub(oneTimeWithdrawalExtAmount);\r\n            oneTimeWithdrawalExtEin = 0;\r\n            oneTimeWithdrawalExtAmount = 0;\r\n            emit ChainlinkCallback(_requestId);\r\n            return true;\r\n        } else {\r\n            oneTimeWithdrawalExtEin = 0;\r\n            oneTimeWithdrawalExtAmount = 0;\r\n            emit ChainlinkCallback(_requestId);\r\n            return false;\r\n        }\r\n    }\r\n\r\n    function resetChainlinkState() public returns (bool) {\r\n        pendingRecovery = false;\r\n        pendingDailyLimit = 0;\r\n        oneTimeWithdrawalAmount = 0;\r\n        oneTimeTransferExtAmount = 0;\r\n        oneTimeTransferExtAddress = address(0);\r\n        oneTimeWithdrawalExtAmount = 0;\r\n        oneTimeWithdrawalExtEin = 0;\r\n    }\r\n\r\n    function revealAndRecover(\r\n        bytes32 _hash,\r\n        address payable _dest,\r\n        string memory password\r\n    ) public {\r\n        require(\r\n            keccak256(abi.encodePacked(address(uint160(_dest)), password)) ==\r\n                _hash,\r\n            \"Hashed input values not equal to commit hash\"\r\n        );\r\n        bytes32 passHash = keccak256(abi.encodePacked(password));\r\n        require(\r\n            keccak256(abi.encodePacked(address(this), passHash)) == oneTimePass,\r\n            \"Invalid password\"\r\n        );\r\n        withdrawHydroBalanceTo(_dest, hydroBalance);\r\n        factoryContract.deleteWallet(ein);\r\n        selfdestruct(_dest);\r\n    }\r\n\r\n    function onAddition(\r\n        uint256 ein,\r\n        uint256,\r\n        bytes memory extraData\r\n    ) public senderIsSnowflake() returns (bool) {\r\n        ChainlinkLib.Run memory run = newRun(\r\n            HYDRO_ID_JOB,\r\n            address(this),\r\n            this.fulfillOnAddition.selector\r\n        );\r\n        run.add(\"role\", \"register\");\r\n        run.add(\"hydroId\", hydroId);\r\n        resolverAdded = true;\r\n        chainlinkRequest(run, 1 ether);\r\n        if (extraData.length == 32) {\r\n            oneTimePass = keccak256(abi.encodePacked(address(this), extraData));\r\n            hasPassword = true;\r\n            resolverAdded = true;\r\n        }\r\n        return true;\r\n    }\r\n\r\n    function fulfillOnAddition(bytes32 _requestId, bool _response)\r\n        public\r\n        checkChainlinkFulfillment(_requestId)\r\n        returns (bool)\r\n    {\r\n        return true;\r\n    }\r\n\r\n    function onRemoval(uint256 ein, bytes memory extraData)\r\n        public\r\n        senderIsSnowflake()\r\n        returns (bool)\r\n    {\r\n        return true;\r\n    }\r\n\r\n    function commitHash(bytes32 _hash) public walletHasPassword() {\r\n        passHashCommit[_hash] = true;\r\n        commitHashFrom[msg.sender] = _hash;\r\n        emit CommitHash(msg.sender, _hash);\r\n    }\r\n}\r\n",
  "sourcePath": "C:\\Users\\HP\\Desktop\\programming-resources\\HydroBlockchain\\vaultWallet\\smart-contracts\\snowflake\\contracts\\ProtectedWallet.sol",
  "compiler": {
    "name": "solc",
    "version": "0.5.0+commit.1d4f565a.Emscripten.clang"
  },
  "schemaVersion": "3.0.10",
  "updatedAt": "2020-08-17T11:19:56.667Z",
  "devdoc": {
    "methods": {
      "isOwner()": {
        "return": "true if `msg.sender` is the owner of the contract.\r"
      },
      "owner()": {
        "return": "the address of the owner.\r"
      },
      "renounceOwnership()": {
        "details": "Allows the current owner to relinquish control of the contract.\r"
      },
      "transferOwnership(address)": {
        "details": "Allows the current owner to transfer control of the contract to a newOwner.\r",
        "params": {
          "newOwner": "The address to transfer ownership to.\r"
        }
      }
    }
  },
  "userdoc": {
    "methods": {
      "renounceOwnership()": {
        "notice": "Renouncing to ownership will leave the contract without an owner.\r It will not be possible to call the functions with the `onlyOwner`\r modifier anymore.\r"
      }
    }
  }
}